:020000040800F2
:100000000080002021170008D9140008EB14000814
:100010006517000865170008651700080000000054
:10002000000000000000000000000000651700084C
:100030006517000800000000651700086517000834
:1000400065170008651700086517000865170008A0
:100050006517000865170008651700086517000890
:100060006517000865170008651700086517000880
:100070006517000865170008651700086517000870
:100080006517000865170008651700086517000860
:100090006517000865170008651700086517000850
:1000A0006517000865170008651700086517000840
:1000B000293600086517000865170008651700084D
:1000C0006517000865170008651700086517000820
:1000D00065170008E9540008AD3B000865170008E3
:1000E0006517000865170008651700086517000800
:1000F00065170008651700086517000865170008F0
:1001000065170008651700086517000865170008DF
:100110006517000865170008F51400083515000874
:1001200065170008651700086517000865170008BF
:10013000651700080000000000000000000000003B
:1001400000000000000000000000000000000000AF
:10015000000000000000000000000000651700081B
:10016000651700086517000865170008651700087F
:10017000651700086517000865170008651700086F
:10018000651700086517000865170008651700085F
:10019000651700086517000865170008651700084F
:1001A00081F0004102E000BF83F0004330B54FEA28
:1001B00041044FEA430594EA050F08BF90EA020F95
:1001C0001FBF54EA000C55EA020C7FEA645C7FEA28
:1001D000655C00F0E2804FEA5454D4EB5555B8BF4B
:1001E0006D420CDD2C4480EA020281EA030382EABC
:1001F000000083EA010180EA020281EA0303362D4E
:1002000088BF30BD11F0004F4FEA01314FF4801C20
:100210004CEA113102D0404261EB410113F0004F32
:100220004FEA03334CEA133302D0524263EB4303E9
:1002300094EA050F00F0A780A4F10104D5F1200E87
:100240000DDB02FA0EFC22FA05F2801841F10001E2
:1002500003FA0EF2801843FA05F359410EE0A5F1B6
:1002600020050EF1200E012A03FA0EFC28BF4CF0E7
:10027000020C43FA05F3C01851EBE37101F000459D
:1002800007D54FF0000EDCF1000C7EEB00006EEBAA
:100290000101B1F5801F1BD3B1F5001F0CD3490834
:1002A0005FEA30004FEA3C0C04F101044FEA44528B
:1002B00012F5800F80F09A80BCF1004F08BF5FEA12
:1002C000500C50F1000041EB045141EA050130BDF2
:1002D0005FEA4C0C404141EB0101013C28BFB1F504
:1002E000801FE9D291F0000F04BF01460020B1FA4F
:1002F00081F308BF2033A3F10B03B3F120020CDA22
:100300000C3208DD02F1140CC2F10C0201FA0CF0FF
:1003100021FA02F10CE002F11402D8BFC2F1200C64
:1003200001FA02F120FA0CFCDCBF41EA0C0190401A
:10033000E41AA2BF01EB0451294330BD6FEA040463
:100340001F3C1CDA0C340EDC04F11404C4F120024E
:1003500020FA04F001FA02F340EA030021FA04F360
:1003600045EA030130BDC4F10C04C4F1200220FAB7
:1003700002F001FA04F340EA0300294630BD21FAF5
:1003800004F0294630BD94F0000F83F4801306BFBB
:1003900081F480110134013D4EE77FEA645C18BFAF
:1003A0007FEA655C29D094EA050F08BF90EA020F46
:1003B00005D054EA000C04BF1946104630BD91EA3E
:1003C000030F1EBF0021002030BD5FEA545C05D141
:1003D0004000494128BF41F0004130BD14F5800480
:1003E0003CBF01F5801130BD01F0004545F0FE41F4
:1003F00041F470014FF0000030BD7FEA645C1ABF29
:10040000194610467FEA655C1CBF0B46024650EA5F
:10041000013406BF52EA033591EA030F41F400218B
:1004200030BD00BF90F0000F04BF0021704730B511
:100430004FF4806404F132044FF000054FF00001E6
:1004400050E700BF90F0000F04BF0021704730B5A7
:100450004FF4806404F1320410F0004548BF40427C
:100460004FF000013EE700BF42004FEAE2014FEAD1
:1004700031014FEA02701FBF12F07F4393F07F4FAC
:1004800081F06051704732F07F4208BF704793F0AF
:100490007F4F04BF41F40021704730B54FF46074C2
:1004A00001F0004521F000411CE700BF50EA0102C5
:1004B00008BF704730B54FF000050AE050EA01026E
:1004C00008BF704730B511F0004502D5404261EBDE
:1004D00041014FF4806404F132045FEA915C3FF41F
:1004E000D8AE4FF003025FEADC0C18BF03325FEABC
:1004F000DC0C18BF033202EBDC02C2F1200300FA6D
:1005000003FC20FA02F001FA03FE40EA0E0021FA91
:1005100002F11444BDE600BF70B54FF0FF0C4CF47F
:10052000E06C1CEA11541DBF1CEA135594EA0C0F31
:1005300095EA0C0F00F0DEF82C4481EA030621EA6C
:100540004C5123EA4C5350EA013518BF52EA0335A7
:1005500041F4801143F4801338D0A0FB02CE4FF059
:100560000005E1FB02E506F00042E0FB03E54FF089
:100570000006E1FB03569CF0000F18BF4EF0010E81
:10058000A4F1FF04B6F5007F64F5407404D25FEA7D
:100590004E0E6D4146EB060642EAC62141EA555130
:1005A0004FEAC52040EA5E504FEACE2EB4F1FD0C72
:1005B00088BFBCF5E06F1ED8BEF1004F08BF5FEAF0
:1005C000500E50F1000041EB045170BD06F00046A2
:1005D00046EA010140EA020081EA0301B4EB5C044F
:1005E000C2BFD4EB0C0541EA045170BD41F4801147
:1005F0004FF0000E013C00F3AB8014F1360FDEBF6C
:10060000002001F0004170BDC4F10004203C35DA47
:100610000C341BDC04F11404C4F1200500FA05F3CA
:1006200020FA04F001FA05F240EA020001F000426B
:1006300021F0004110EBD37021FA04F642EB0601E1
:100640005EEA430E08BF20EAD37070BDC4F10C040B
:10065000C4F1200500FA04F320FA05F001FA04F2CF
:1006600040EA020001F0004110EBD37041F10001BB
:100670005EEA430E08BF20EAD37070BDC4F12005C6
:1006800000FA05F24EEA020E20FA04F301FA05F22E
:1006900043EA020321FA04F001F0004121FA04F2D6
:1006A00020EA020000EBD3705EEA430E08BF20EAA6
:1006B000D37070BD94F0000F0FD101F000464000E0
:1006C00041EB010111F4801F08BF013CF7D041EA62
:1006D000060195F0000F18BF704703F00046520066
:1006E00043EB030313F4801F08BF013DF7D043EA37
:1006F0000603704794EA0C0F0CEA135518BF95EAED
:100700000C0F0CD050EA410618BF52EA4306D1D173
:1007100081EA030101F000414FF0000070BD50EA92
:10072000410606BF1046194652EA430619D094EA1C
:100730000C0F02D150EA013613D195EA0C0F05D106
:1007400052EA03361CBF104619460AD181EA03015A
:1007500001F0004141F0FE4141F470014FF0000012
:1007600070BD41F0FE4141F4780170BD70B54FF0AD
:10077000FF0C4CF4E06C1CEA11541DBF1CEA13552D
:1007800094EA0C0F95EA0C0F00F0A7F8A4EB05040F
:1007900081EA030E52EA03354FEA013100F0888006
:1007A0004FEA03334FF0805545EA131343EA1263CF
:1007B0004FEA022245EA111545EA10654FEA002684
:1007C0000EF000419D4208BF964244F1FD0404F53D
:1007D000407402D25B084FEA3202B61A65EB030599
:1007E0005B084FEA32024FF480104FF4002CB6EB56
:1007F000020E75EB030E22BFB61A754640EA0C00D6
:100800005B084FEA3202B6EB020E75EB030E22BF15
:10081000B61A754640EA5C005B084FEA3202B6EB56
:10082000020E75EB030E22BFB61A754640EA9C0015
:100830005B084FEA3202B6EB020E75EB030E22BFE5
:10084000B61A754640EADC0055EA060E18D04FEAA3
:10085000051545EA16754FEA06164FEAC30343EA43
:1008600052734FEAC2025FEA1C1CC0D111F4801F10
:100870000BD141EA00014FF000004FF0004CB6E709
:1008800011F4801F04BF01430020B4F1FD0C88BFA8
:10089000BCF5E06F3FF6AFAEB5EB030C04BFB6EBB3
:1008A000020C5FEA500C50F1000041EB045170BDA6
:1008B0000EF0004E4EEA113114EB5C04C2BFD4EBD3
:1008C0000C0541EA045170BD41F480114FF0000E57
:1008D000013C90E645EA060E8DE60CEA135594EAD3
:1008E0000C0F08BF95EA0C0F3FF43BAF94EA0C0FD6
:1008F0000AD150EA01347FF434AF95EA0C0F7FF44B
:1009000025AF104619462CE795EA0C0F06D152EA9E
:1009100003353FF4FDAE1046194622E750EA410682
:1009200018BF52EA43067FF4C5AE50EA41047FF493
:100930000DAF52EA43057FF4EBAE12E74FF0FF3CF8
:1009400006E000BF4FF0010C02E000BF4FF0010CC9
:100950004DF804CD4FEA410C7FEA6C5C4FEA430C42
:1009600018BF7FEA6C5C1BD001B050EA410C0CBF91
:1009700052EA430C91EA030F02BF90EA020F0020F3
:10098000704710F1000F91EA030F58BF994208BF5A
:1009900090422CBFD8176FEAE37040F00100704717
:1009A0004FEA410C7FEA6C5C02D150EA013C07D16E
:1009B0004FEA430C7FEA6C5CD6D152EA033CD3D0B9
:1009C0005DF8040B704700BF8446104662468C46B3
:1009D0001946634600E000BF01B5FFF7B7FF0028E6
:1009E00048BF10F1000F01BD4DF808EDFFF7F4FF0F
:1009F0000CBF012000205DF808FB00BF4DF808ED9A
:100A0000FFF7EAFF34BF012000205DF808FB00BFBC
:100A10004DF808EDFFF7E0FF94BF012000205DF8DE
:100A200008FB00BF4DF808EDFFF7CEFF94BF012093
:100A300000205DF808FB00BF4DF808EDFFF7C4FF8C
:100A400034BF012000205DF808FB00BF4FEA4102DF
:100A5000B2F1E04324BFB3F5001CDCF1FE5C0DD91C
:100A600001F0004C4FEAC0024CEA5070B2F1004F66
:100A700040EB830008BF20F00100704711F0804F69
:100A800021D113F13872BCBF01F00040704741F42E
:100A900080114FEA5252C2F11802C2F1200C10FA32
:100AA0000CF320FA02F018BF40F001004FEAC12316
:100AB0004FEAD32303FA0CFC40EA0C0023FA02F3BA
:100AC0004FEA4303CCE77FEA625307D150EA013390
:100AD0001EBF4FF0FE4040F44000704701F0004060
:100AE00040F0FE4040F40000704700BF80F000403E
:100AF00002E000BF81F0004142001FBF5FEA4103F6
:100B000092EA030F7FEA226C7FEA236C6AD04FEAF5
:100B10001262D2EB1363C1BFD2184140484041403A
:100B2000B8BF5B42192B88BF704710F0004F40F4EC
:100B3000000020F07F4018BF404211F0004F41F408
:100B4000000121F07F4118BF494292EA030F3FD0D4
:100B5000A2F1010241FA03FC10EB0C00C3F12003E7
:100B600001FA03F100F0004302D5494260EB400076
:100B7000B0F5000F13D3B0F1807F06D340084FEAE1
:100B8000310102F10102FE2A51D2B1F1004F40EBD6
:100B9000C25008BF20F0010040EA0300704749003E
:100BA00040EB0000013A28BFB0F5000FEDD2B0FADB
:100BB00080FCACF1080CB2EB0C0200FA0CF0AABFFE
:100BC00000EBC25052421843BCBFD040184370479C
:100BD00092F0000F81F4000106BF80F400000132A2
:100BE000013BB5E74FEA41037FEA226C18BF7FEA79
:100BF000236C21D092EA030F04D092F0000F08BFBB
:100C00000846704790EA010F1CBF0020704712F0A1
:100C10007F4F04D1400028BF40F00040704712F1E0
:100C200000723CBF00F50000704700F0004343F045
:100C3000FE4040F4000070477FEA226216BF08467B
:100C40007FEA23630146420206BF5FEA412390EA3E
:100C5000010F40F4800070474FF0000304E000BF34
:100C600010F0004348BF40425FEA000C08BF7047E5
:100C700043F0964301464FF000001CE050EA0102A9
:100C800008BF70474FF000030AE000BF50EA0102BE
:100C900008BF704711F0004302D5404261EB4101AB
:100CA0005FEA010C02BF84460146002043F0B643D0
:100CB00008BFA3F18053A3F50003BCFA8CF2083AF5
:100CC000A3EBC25310DB01FA02FC634400FA02FCFE
:100CD000C2F12002BCF1004F20FA02F243EB020005
:100CE00008BF20F00100704702F1200201FA02FC67
:100CF000C2F1200250EA4C0021FA02F243EB02005A
:100D000008BF20EADC7070474FF0FF0C1CEAD0529D
:100D10001EBF1CEAD15392EA0C0F93EA0C0F6FD05E
:100D20001A4480EA010C400218BF5FEA41211ED03C
:100D30004FF0006343EA501043EA5111A0FB013128
:100D40000CF00040B1F5000F3EBF490041EAD371FD
:100D50005B0040EA010062F17F02FD2A1DD8B3F179
:100D6000004F40EBC25008BF20F00100704790F0E8
:100D7000000F0CF0004C08BF49024CEA502040EA3A
:100D800051207F3AC2BFD2F1FF0340EAC250704700
:100D900040F400004FF00003013A5DDC12F1190F3E
:100DA000DCBF00F000407047C2F10002410021FAB0
:100DB00002F1C2F1200200FA02FC5FEA310040F1C8
:100DC000000053EA4C0308BF20EADC70704792F041
:100DD000000F00F0004C02BF400010F4000F013A79
:100DE000F9D040EA0C0093F0000F01F0004C02BF74
:100DF000490011F4000F013BF9D041EA0C018FE7E3
:100E00000CEAD15392EA0C0F18BF93EA0C0F0AD0E8
:100E100030F0004C18BF31F0004CD8D180EA01000E
:100E200000F00040704790F0000F17BF90F0004FA7
:100E3000084691F0000F91F0004F14D092EA0C0F89
:100E400001D142020FD193EA0C0F03D14B0218BF1C
:100E5000084608D180EA010000F0004040F0FE4062
:100E600040F40000704740F0FE4040F440007047FE
:100E70004FF0FF0C1CEAD0521EBF1CEAD15392EA7D
:100E80000C0F93EA0C0F69D0A2EB030280EA010C6D
:100E900049024FEA402037D04FF0805343EA111106
:100EA00043EA10130CF000408B4238BF5B0042F164
:100EB0007D024FF4000C8B4224BF5B1A40EA0C0009
:100EC000B3EB510F24BFA3EB510340EA5C00B3EB3B
:100ED000910F24BFA3EB910340EA9C00B3EBD10F29
:100EE00024BFA3EBD10340EADC001B0118BF5FEA7B
:100EF0001C1CE0D1FD2A3FF650AF8B4240EBC250A4
:100F000008BF20F0010070470CF0004C4CEA502064
:100F10007F32C2BFD2F1FF0340EAC250704740F4B3
:100F200000004FF00003013A37E792F0000F00F0A5
:100F3000004C02BF400010F4000F013AF9D040EA23
:100F40000C0093F0000F01F0004C02BF490011F4B7
:100F5000000F013BF9D041EA0C0195E70CEAD153AF
:100F600092EA0C0F08D142027FF47DAF93EA0C0F96
:100F70007FF470AF084676E793EA0C0F04D14B027A
:100F80003FF44CAF08466EE730F0004C18BF31F02C
:100F9000004CCAD130F000427FF45CAF31F0004326
:100FA0007FF43CAF5FE700BF4FF0FF3C06E000BFBF
:100FB0004FF0010C02E000BF4FF0010C4DF804CDE2
:100FC0004FEA40024FEA41037FEA226C18BF7FEAF2
:100FD000236C11D001B052EA530C18BF90EA010FF4
:100FE00058BFB2EB030088BFC81738BF6FEAE17083
:100FF00018BF40F0010070477FEA226C02D15FEA1F
:10100000402C05D17FEA236CE4D15FEA412CE1D08A
:101010005DF8040B704700BF844608466146FFE751
:101020000FB5FFF7C9FF002848BF10F1000F0FBD33
:101030004DF808EDFFF7F4FF0CBF012000205DF82C
:1010400008FB00BF4DF808EDFFF7EAFF34BF0120B1
:1010500000205DF808FB00BF4DF808EDFFF7E0FF4A
:1010600094BF012000205DF808FB00BF4DF808ED9B
:10107000FFF7D2FF94BF012000205DF808FB00BFFE
:101080004DF808EDFFF7C8FF34BF012000205DF8E0
:1010900008FB00BF4FEA4002B2F1FE4F0FD34FF002
:1010A0009E03B3EB12620DD94FEA002343F00043D5
:1010B00010F0004F23FA02F018BF404270474FF083
:1010C0000000704712F1610F01D1420205D110F00A
:1010D000004008BF6FF0004070474FF000007047BD
:1010E00053B94AB9002908BF00281CBF4FF0FF318F
:1010F0004FF0FF3000F0A6B9ADF1080C6DE904CE59
:1011000000F03EF8DDF804E0DDE9022304B07047AA
:1011100038B50C4605462146284600220023FFF735
:101120006DFC28B928462146BDE8384000F00AB8D1
:10113000284604F1004100F005F8404261EB41010E
:1011400038BD00BFD0B500220B4B06460F46FFF757
:10115000E3F900F079F90446FFF764F90022074B40
:10116000FFF7DAF902460B4630463946FFF71CF81E
:1011700000F06AF92146D0BD0000F03D0000F041CA
:101180002DE9F047089E0D4604468E46002B40F0A0
:1011900083808A42174647D9B2FA82F34BB1C3F132
:1011A000200105FA03FE20FA01F19F4041EA0E0EEC
:1011B0009C404FEA1748BEFBF8FC1FFA87F908FB72
:1011C0001CE20CFB09F0210C41EA024290420AD9D0
:1011D000BA180CF1FF3180F01881904240F215816D
:1011E000ACF1020C3A44121AB2FBF8F008FB1022E0
:1011F00000FB09F1A4B244EA0244A14209D93C1916
:1012000000F1FF3280F00381A14240F200810238F8
:101210003C44641A002140EA0C401EB10022DC402C
:10122000C6E90042BDE8F08702B9FFDEB2FA82F3F8
:10123000002B4FD18D1A01214FEA124E1FFA82F86E
:10124000B5FBFEFC0EFB1C5508FB0CF0220C42EA21
:101250000545A84207D97D190CF1FF3202D2A842F8
:1012600000F2E98094462D1AB5FBFEF00EFB1055F6
:1012700008FB00F8A4B244EA0544A04507D93C198C
:1012800000F1FF3202D2A04500F2D9801046A4EB53
:10129000080440EA0C40C0E78B4208D9002E00F059
:1012A000B1800021C6E900050846BDE8F087B3FA21
:1012B00083F100294BD1AB4202D3824200F2B980C4
:1012C000841A65EB030301209E46002EAAD0C6E9CE
:1012D000004EA7E79F40C3F12002D1404FEA174ECE
:1012E000B1FBFEF01FFA87F80EFB101124FA02F290
:1012F0009D4000FB08FC2A43150C45EA0145AC451E
:1013000004FA03F409D97D1900F1FF3180F08F80D0
:10131000AC4540F28C8002383D44A5EB0C05B5FB92
:10132000FEF10EFB115C01FB08F995B245EA0C4594
:10133000A94507D97D1901F1FF3274D2A94572D9A7
:1013400002393D44A5EB090541EA004178E7C1F1C6
:1013500020078B4022FA07FC4CEA030C25FA07F41D
:101360004FEA1C4EB4FBFEF91FFA8CF80EFB194431
:1013700020FA07F309FB08FA8D401D432B0C43EAC2
:101380000444A24502FA01F200FA01F309D91CEB68
:10139000040409F1FF3048D2A24546D9A9F1020957
:1013A0006444A4EB0A04B4FBFEF00EFB104400FB03
:1013B00008FAADB245EA0444A24508D91CEB04047E
:1013C00000F1FF352DD2A2452BD90238644440EA02
:1013D0000940A0FB0289A4EB0A044C45C6464D46D1
:1013E00019D316D05EB1B3EB0E0264EB050404FA18
:1013F00007F722FA01F31F43CC40C6E9007400212D
:10140000BDE8F087314630460CE78C46EBE61046E7
:10141000FFE64345E6D2B8EB020E69EB0C05013856
:10142000E0E72846D3E711468CE78146B9E708464E
:1014300073E7084649E7ACF1020C3D4413E7023874
:101440003C4424E7704700BF4A0011D212F5001255
:1014500011D20DD56FF47873B3EB62520ED44FEA0C
:10146000C12343F0004343EA505323FA02F070478C
:101470004FF00000704750EA013002D14FF0FF30CA
:1014800070474FF00000704710F8012B11F8013B36
:10149000012A28BF9A42F7D0D01A7047034613F8A2
:1014A000012B002AFBD1181A013870474FEA410C72
:1014B0007FEA6C5C02D150EA013C0AD14FEA430C4E
:1014C0007FEA6C5C02D152EA033C02D14FF000008B
:1014D00070474FF001007047684620F007018D46C5
:1014E00001B5BDE8014085467047684620F0070118
:1014F0008D46FEE7684620F007018D46084A01B593
:101500001368012101330748136001F0B5F818B1E1
:101510000121044801F0BBF8BDE801408546704751
:101520002801002000100040014B0021186870477E
:1015300028010020684620F007018D46012101B5F1
:10154000074801F099F830B10548012101F09FF8F2
:10155000012005F04BF9BDE801408546704700BF0A
:101560000014004013B5114B114C019303210123CA
:101570004FF0FF300F4A009403F05AFF0E4B032147
:10158000CDE900434FF0FF3001230C4A03F050FF38
:101590000B4B03211B684FF0FF30CDE90043094A94
:1015A000012303F045FF02B010BD00BF878C000887
:1015B000E68C0008608C0008B38C0008938C00084F
:1015C00000000020C08C000808B54FF4A06000F0B7
:1015D000A7FC01F001F94FF4E13001F037F901F017
:1015E00091FE01F0A3FE02F06BFAFFF7BBFF03F0E0
:1015F00095FF02F055FD4FF6FF7002F09CFE42F29F
:101600007F51092002F048F942F27F51092002F08F
:101610006DF90A4802F044FF02F026FF084805F081
:10162000F3F8084802F002FC074D084C20462968F0
:1016300002F008FC02F07CFFF8E700BF2915000863
:10164000A805002000060020940000201C000020B7
:10165000304B82B01A6842F001021A6059682E4A73
:101660000A405A601A6822F0847222F480321A60AA
:101670001A6822F480221A605A6822F47F025A60A3
:101680004FF41F029A600022009201921A6842F4FD
:1016900080321A601A6802F400320192009A013214
:1016A0000092019A1AB9009AB2F5805FF2D11A68D5
:1016B00012F4003218BF01220192019A012A23D1AB
:1016C0005A685A605A685A605A6842F480625A608E
:1016D0005A6822F47C125A605A6842F424125A6002
:1016E0001A6842F080721A601A689201FCD55A6832
:1016F00022F003025A605A6842F002025A605A68A5
:1017000002F00C02082AFAD14FF00062034B9A60F3
:1017100002B07047001002400000FFF000ED00E052
:10172000002103E00A4B5B584350043109480A4B3F
:1017300042189A42F6D3094A02E0002342F8043BD9
:10174000074B9A42F9D3FFF783FFFFF73DFF70473E
:1017500080A10008000000202401002028010020B2
:10176000541A0020FEE7000008B50E4B98420BD13A
:1017700001214FF4007000F08DFC00214FF4007047
:10178000BDE8084000F086BC074B984208D1012113
:101790004FF4806000F07EFC00214FF48060EFE7A2
:1017A00008BD00BF00240140002801404A690B68C1
:1017B00010B513438A69446813430E4A2240134309
:1017C0000A7943EA022343608468D1E90223134380
:1017D000094A224013434A7943EA420383600A7C60
:1017E000C36A013A23F47003D2B243EA0253C362DC
:1017F00010BD00BFFFFEF0E0FDF7F1FF836819B1F7
:1018000043F001038360704723F00103FAE7836824
:1018100043F00803836070478068C0F3C0007047DE
:10182000836843F00403836070478068C0F38000DE
:101830007047836819B143F4A0038360704723F4B1
:10184000A003FAE7092970B51BD90726A1F10A04FC
:10185000C56804EB4404A64025EA060503FA04F42F
:101860002C43C460062A18D8531E1F22446B03EB76
:1018700083039A4024EA020401FA03F222434263FA
:1018800070BD0724056901EB4106B44025EA040553
:1018900003FA06F42C430461E4E70C2A0CD81F2455
:1018A000073A036B02EB8202944023EA040301FA35
:1018B00002F21A430263E3E71F240D3AC36A02EB04
:1018C0008202944023EA040301FA02F21A43C2623C
:1018D000D6E7C06C80B270470368194214BF01207C
:1018E00000207047436819B143F08063436070473C
:1018F00023F08063FAE77FB5034600228DF80020CD
:101900009DF80020092A2BD900238DF800309DF87E
:101910000020092A43D9ADF802308DF800309DF837
:101920000030052B7AD90620BDF80220BDF8023020
:1019300092B299B2B1FBF0F300FB131303219BB2F7
:10194000B2FBF0F2B3FBF1F313449BB2ADF80230FB
:10195000BDF80200C0F5006000B207B05DF804FBFE
:101960009A6842F008029A601846FFF755FF00286F
:10197000FAD19A6842F004029A601846FFF755FFC0
:101980000028FAD1D96C9DF8002006A800EB42028D
:1019900022F8141C9DF800200132D2B2AEE78DF877
:1019A00001309DF80120082A06D99DF80020013257
:1019B000D2B28DF80020AAE79DF801109DF8012011
:1019C00006A800EB410100EB420231F8141C32F88A
:1019D000122C91421BD99DF8012000EB420232F8F3
:1019E000142CADF802209DF801109DF8012000EBA9
:1019F000410131F8121C00EB420222F8141C9DF840
:101A00000120BDF8021000EB420222F8121C9DF8E2
:101A100001200132D2B28DF80120C2E79DF80020EA
:101A200006A901EB4202BDF8023032F8102C134433
:101A30009BB2ADF802309DF800300133DBB26CE7A9
:101A4000036823F001031B041B0C036000230360E5
:101A500043608360C360394B984204D1384A53686D
:101A600043F00F031EE0374B984204D1344A5368C9
:101A700043F0F00316E0344B984204D1304A5368E7
:101A800043F470630EE0314B984204D12C4A536802
:101A900043F4704306E02E4B984205D1284A536820
:101AA00043F47023536070472A4B984204D1244A70
:101AB000536843F47003F5E7274B984204D1204A5A
:101AC000536843F07063EDE7244B9842C6D0244B33
:101AD000984201D1234AC2E7234B984201D1214ABF
:101AE000C5E7224B984201D11E4AC8E7204B9842D5
:101AF00001D11C4ACBE71F4B984201D1194ACEE7CE
:101B00001D4B984201D1174AD2E71C4B984201D194
:101B1000144AD5E71A4B984201D11A4A9FE71A4B4B
:101B2000984201D1174AA2E7184B984201D1154AB1
:101B3000A5E7174B9842B6D1124AA8E70800024021
:101B4000000002401C0002403000024044000240FD
:101B5000580002406C0002408000024094000240A5
:101B600008040240000402401C0402403004024009
:101B700044040240580402406C04024080040240C5
:101B800090040240D0040240A0040240B00402408D
:101B9000C00402408B6810B50C6A026823430C69CC
:101BA00022F4FF4223434C6922F0700223438C69E4
:101BB0002343CC6923434C6A23438C6A2343134356
:101BC0000360CB6843600B6883604B68C36010BDE3
:101BD000036819B143F001030360704723F0010368
:101BE0001B041B0CF8E70000C20006D5054B1B6860
:101BF000034214BF01200020704783004CBF024BFA
:101C0000024BF4E700040240D0040240000002400E
:101C1000C20002D5034B5860704783004CBF024B93
:101C2000024BF8E700040240D004024000000240EA
:101C30002DE9F041CB780E88DA0648BF8A7803F0A8
:101C40000F0548BF15430A78D2B100214FF0010CAF
:101C50004FF00F0E02680CFA01F737EA06040BD1B9
:101C60008C000EFA04F822EA080205FA04F4282B84
:101C700042EA040224D1476101310829EBD1026014
:101C8000FF2E1BD908244FF0010C4FF00F0E4168B6
:101C90000CFA04F737EA06020CD1A200203A0EFA39
:101CA00002F821EA080105FA02F2282B41EA0201B2
:101CB0000AD147610134102CEAD14160BDE8F081BE
:101CC000482B08BF0761D7E7482B08BF0761F1E73A
:101CD00001617047416170470AB10161704741611C
:101CE00070470000264B0028B4BFDB695B68002802
:101CF00070B500F44012C0F3034586B223DAB2F5A2
:101D0000401F13D105F11004032505FA04F423EA5A
:101D1000040341B1C0F34952120106FA02F200284D
:101D200043EA02031BDA164AD36170BDC40202D52E
:101D30000324AC40EBE7C0F34952120106FA02F269
:101D400023EA0203E5E7B2F5401F0BD10C4C23F068
:101D50007063626822F0706262600029DAD1084A1A
:101D60005360E2E7C2024DBF0324440D2401AC409E
:101D700058BF06FA04F423EA040343F07063ECE767
:101D80000000014070B586B00446868801A80D4663
:101D900000F012F9039A2E4926F03F06B2FBF1F14A
:101DA000360489B2360C0E43A6802388294823F0D6
:101DB00001031B041B0C23802B683C2928BF3C21FA
:101DC000834223D85B00B2FBF3F39BB2042B38BFF2
:101DD0000423013189B22184A3832388AA889BB27A
:101DE00043F0010323802388698923F4816323F06E
:101DF00002031B040A431B0C13439BB22A89238052
:101E0000AB8913439BB2238106B070BD4BF6FF70C4
:101E1000EE8886421BBF1920434303EB4303B2FB0A
:101E2000F3F30BBFB2FBF3F39BB29BB243F48043DB
:101E3000C3F30B020AB943F001034FF49672514306
:101E40004FF47A7243F40043B1FBF2F1C1E700BFF3
:101E500040420F00A0860100038821B19BB243F0ED
:101E600001030380704723F001031B041B0CF8E7F8
:101E7000038821B19BB243F480730380704723F43D
:101E800080731B041B0CF8E7038821B19BB243F459
:101E900000730380704723F400731B041B0CF8E7E6
:101EA000038821B19BB243F480630380704723F41D
:101EB00080631B041B0CF8E701827047008AC0B2E4
:101EC000704722B141F0010189B20182704701F0EF
:101ED000FE01F9E7838A008B9BB243EA00430B4083
:101EE00023F07F435B1A584258417047002382B069
:101EF000009301930B0F01900093009B21F07F4111
:101F000053B1019B14330193019B1B680B4214BF17
:101F10000120002002B07047019B090C1833F2E742
:101F2000034B40F0BF6040F40030D860704700BF02
:101F300000ED00E070B50125017801F01F039D4020
:101F4000C3784C09C3B10F4BDA684378D243C2F36C
:101F50000222C2F1040603FA06F683780F2020FA63
:101F600002F213403343084A1B01DBB2114481F8EB
:101F7000003342F8245070BD034B203443F8245002
:101F8000F9E700BF00ED00E000E100E0044B0428A9
:101F90001A680CBF42F0040222F004021A60704773
:101FA00010E000E0034A536823F4404303435360C6
:101FB000704700BF001002401E4A10B5536803F07E
:101FC0000C03082B1FD01C4B036053681B4CC3F33E
:101FD0000313E15C0368CB4043605168C1F3022105
:101FE000615C23FA01F181605168C1F3C221615C37
:101FF000CB40C36052681249C2F381328A5CB3FBA2
:10200000F2F3036110BD51685468C1F383410F2995
:1020100001F1020308BF1223E10305D4094909684D
:10202000CC0604D5044903E051688903FAD5064972
:102030004B43C9E70010024000127A00080000205C
:10204000040000200038024000093D00044B5A699A
:1020500011B110435861704722EA0000FAE700BF4F
:1020600000100240044B9A6911B110439861704707
:1020700022EA0000FAE700BF00100240044BDA69D0
:1020800011B11043D861704722EA0000FAE700BF9F
:1020900000100240044BDA6811B11043D860704759
:1020A00022EA0000FAE700BF00100240038810B5E2
:1020B00003F441524C880B8823438C882343CC88FB
:1020C00023430C8923434C8923438C892343CC89A4
:1020D000234313439BB20380838B23F400631B04CD
:1020E0001B0C83830B8A038210BD038821B19BB232
:1020F00043F040030380704723F040031B041B0C94
:10210000F8E783889BB212B119438180704723EAB4
:102110000101FAE781817047808980B270470389A5
:10212000194214BF01200020704730B5058C42EAE7
:10213000031225F001052D042D0C0584048B058C5C
:1021400024F0F304ADB22404240C25F0020514435A
:102150002943A4B241F001010483018430BD70B56C
:10216000068C120226F010063604360C0684058B07
:10217000048C25F44075A4B22D0524F020042D0D07
:1021800042EA033244EA01141543A4B2ADB244F06A
:1021900010040583048470BD244A038890429BB2D6
:1021A0001AD0B0F1804F17D0A2F59432904213D0DC
:1021B00002F5806290420FD002F5806290420BD00F
:1021C00002F59432904207D002F5C052904203D0FB
:1021D00002F58062904203D14A8823F070031343D2
:1021E000134A904208D002F5806290421FBF23F448
:1021F0004073CA889BB2134303808B8883850B8806
:1022000003850A4B98420BD003F50063984207D030
:1022100003F5C053984203D003F58063984201D17F
:102220000B7A038601238382704700BF002C014094
:1022300000100040038C70B523F001031B041B0C3D
:102240000384038C8488028B0D8822F073021204AD
:10225000120C4E882A4323F002030D891B043543D8
:102260001B0C2B43124DA4B2A8429BB20BD005F518
:102270000065A84207D005F5C055A84203D005F572
:102280008065A8420ED14D8923F008032B438D8829
:1022900023F00403CE892B438D8924F44074354305
:1022A0002C43A4B284800283CA888286038470BDD2
:1022B000002C0140038C70B523F010031B041B0C91
:1022C0000384038C8488028BA5B222F4E6420C8836
:1022D0001204120C42EA04224E880C8923F02003D7
:1022E0001B0434431B0C43EA0413154C92B2A04266
:1022F0009BB20BD004F50064A04207D004F5C05493
:10230000A04203D004F58064A04213D14C8923F08D
:10231000800343EA04134FF6BF741C408B88CE89B8
:1023200044EA031325F440648D899BB2354344EAA3
:102330008504A5B285800283CA880287038470BDA4
:10234000002C0140038C70B523F480731B041B0C1C
:102350000384038C8488828BA5B222F073020C88DC
:102360001204120C4E88224323F400730C891B04C0
:1023700034431B0C43EA0423144C9BB2A0420BD001
:1023800004F50064A04207D004F5C054A04203D075
:1023900004F58064A04213D14C8923F4006343EA1E
:1023A00004234FF6FF341C408B88CE8944EA032374
:1023B00025F440548D899BB2354344EA0514A5B2F7
:1023C00085808283CA888287038470BD002C014087
:1023D000038C70B523F480531B041B0C0384038C03
:1023E0008488828B0D8822F4E6421204120C42EAA1
:1023F00005224E880D8923F400531B0435431B0C22
:1024000043EA05330F4DA4B2A84292B29BB20BD05F
:1024100005F50065A84207D005F5C055A84203D0D0
:1024200005F58065A84205D18D8924F4804444EAED
:102430008514A4B284808283CA88A0F840200384D3
:1024400070BD00BF002C01404FF6FF738380002356
:102450000380C380438003727047002301220380FE
:1024600043808280C38003817047038821B19BB27F
:1024700043F001030380704723F001031B041B0C8E
:10248000F8E7B0F8443039B16FEA43436FEA534399
:102490009BB2A0F844307047C3F30E03F9E7838979
:1024A0009BB212B119438181704723EA0101FAE717
:1024B00070B50689048B058C24F4407424F0030461
:1024C00025F0220526F0070624042D043604240CEA
:1024D0002D0C42EA0312360C44F4807415430E436B
:1024E00044F00104ADB206810483058470BD038805
:1024F00021B19BB243F080030380704723F0800337
:102500001B041B0CF8E7038B23F008031B041B0CB4
:102510000B4303837047038B23F400631B041B0CE2
:1025200043EA01239BB203837047838B23F00803A4
:102530001B041B0C0B4383837047838B23F40063C2
:102540001B041B0C43EA01239BB2838370478184E5
:102550007047038B23F00C031B041B0C0383038BBA
:102560009BB20B4303837047028B22F44062120438
:10257000120C0283038B9BB243EA01239BB20383B9
:102580007047838B23F00C031B041B0C8383838B0A
:102590009BB20B4383837047828B22F44062120408
:1025A000120C8283838B9BB243EA01239BB2838309
:1025B0007047F8B50D460E88AA8849882B8936B928
:1025C000FFF7B3FDE988BDE8F840FFF7C2BF042E6E
:1025D00006D1FFF7C4FDE988BDE8F840FFF7C4BFA6
:1025E000082EEF88058C21D125F480752D042D0C43
:1025F0000584B0F81CC0068C1FFA8CFCB6B22CF017
:10260000F30C26F4007646EA012642EA0C0C4CEA6A
:10261000031CB6B246F480761FFA8CFC3946A0F84B
:102620001CC00684BDE8F840FFF7ABBF25F4805519
:102630002D042D0C0584868B058C26F44076ADB2D6
:102640004FEA033C360525F40055360D45EA0135C1
:102650004CEA022C46EA0C0CADB245F480551FFA48
:102660008CFC3946A0F81CC00584BDE8F840FFF793
:1026700093BF808C80B27047038A828911EA03007D
:1026800092B203D00A4214BF012000207047C94310
:1026900089B201827047000030B50D460446038AB6
:1026A0008A899BB2C98823F440530B4303828389F0
:1026B000A98823F4B05323F00C031B041B0C0B4319
:1026C000298987B00B4369890B439BB28381838A35
:1026D0009BB223F440731343838201A8FFF76CFC81
:1026E000DDE903230D498C4208BF1A4619235343E1
:1026F0002A689200B3FBF2F36422B3FBF2F102FB0F
:1027000011331B013233B3FBF2F303F00F0343EA3F
:1027100001139BB2238107B030BD00BF00380140D8
:10272000838921B19BB243F400538381704723F422
:1027300000531B041B0CF8E7012310B5C1F342142E
:102740009C4201F01F0103FA01F105D10C3003682E
:102750003AB11943016010BD022C0CBF1030143087
:10276000F5E723EA0101F5E7038A23F00F031B04D1
:102770001B0C0382038A9BB20B4303827047C1F395
:102780000801818070478088C0F308007047038883
:10279000194214BF012000207047012310B5C1F376
:1027A00042140246012C01F01F0003FA00F30ED17F
:1027B0009089128880B2184092B238B10123090A78
:1027C00003FA01F10A4214BF1846002010BD022C82
:1027D0000CBF108A908AECE708B56FF00400FFF791
:1027E000D5FB084B084A1B68B3FBF2F3074ADBB280
:1027F0001370C3EB431203EB8203054ADB00138023
:1028000008BD00BF0000002000127A002E01002049
:102810002C01002000220B4B1B8858430A4B5860A8
:102820009A601A6842F001021A601A6802F00112F6
:10283000012AFAD01A6822F001021A6000229A6076
:10284000704700BF2C01002010E000E030B50024EC
:1028500087B010220546214602A8009404F06DFFBF
:10286000012144F204000194FFF7FCFB114B69467F
:1028700011480093FFF7DCF94FF44023CDE90254EF
:10288000ADF814400D4C012240F22551204604932E
:10289000FFF752FF0A4B01A80193FFF74BFB2046BD
:1028A00002A9FFF7F9FE01212046FFF739FF07B023
:1028B00030BD00BF0002031800080140003801408D
:1028C00025000001F8B50E4614460025084FA54224
:1028D00001DB2046F8BD40210548FFF758FF0028DE
:1028E000F9D07157384689B2FFF749FF0135EEE755
:1028F000003801400346074A0749106803448B42E9
:1029000004D306498B4201D8136070474FF0FF3063
:10291000704700BF18000020541A0020541C0020EB
:102920008FB500F01DFCDFF88090042000F076FCED
:102930000446052000F072FC05460C2000F06EFCF9
:1029400006460D2000F06AFC07460E2000F066FCEB
:1029500080460F2000F062FC82466420FFF75AFF99
:1029600020B200F073FC044628B200F06FFC05466C
:1029700030B200F06BFC064638B200F067FC074648
:102980000FFA88F000F062FC80460FFA8AF000F03F
:102990005DFC3346CDE901802A4621464846009732
:1029A00004F04AFEC1E700BFF18C000800B589B011
:1029B00004F09CF804F0D2F8A0F56F401338042816
:1029C0004DD8DFE800F0034446484A00254804F0AB
:1029D00069FE254804F066FE002004F0E7F823486D
:1029E00004F060FE4FF4FA70FFF714FF204804F083
:1029F00059FE1D226846002104F000F969461D4871
:102A000004F01AFE4FF4FA70FFF704FF1A4804F0BE
:102A100049FE1D220021194804F068F9184804F005
:102A200041FE4FF4FA70FFF7F5FE114804F03AFE4C
:102A30001D226846002104F0E1F869460D4804F0C3
:102A4000FBFD104804F02EFE09B05DF804FB0E48B3
:102A5000BDE70E48BBE70E48B9E70E48B7E70E489A
:102A6000B5E700BF368D00087A8D0008928D00080A
:102A7000AA8D0008CE960008C18D0008F18D0008CF
:102A8000D98D0008DE8E0008428D00084E8D0008AA
:102A90005A8D0008668D0008738D000838B504460D
:102AA000002500F043FCA54201DB002038BD00F00A
:102AB00051FC0135F7E700002DE9F347044602F029
:102AC000BDF9164801F098FF0025DFF85C90144E20
:102AD000DFF858A0A54203DB002002B0BDE8F08774
:102AE00002F0F2F8C9F800000D4802F0E9F9306888
:102AF000FEF7D0FA80467068FEF7CCFA0746B06859
:102B0000FEF7C8FA43463A4651460090054801F0A0
:102B100017FAC820FFF77EFE0135DBE700004842C8
:102B2000340100200044004030010020448E0008A1
:102B300000232DE9F04387B00393049305930446E3
:102B400002F062FB2D4801F057FF0025DFF8B4804A
:102B50002B4FDFF8B490A54203DB002007B0BDE89F
:102B6000F08302F0B1F8064601AA0DF102016846B1
:102B700002F0F1F80DF10A0202A90DF1060002F0CF
:102B8000C9F83046FEF786FA01B2404604F054FD1B
:102B9000BDF9062003ABBDF90410BDF9020001F038
:102BA0006BFFFDF761FC02460B46384604F044FD1E
:102BB000BDF9082004ABBDF90410BDF9000001F017
:102BC0005BFFFDF751FC02460B46384604F034FD2E
:102BD000BDF90A2005ABBDF90210BDF9000001F0F6
:102BE0004BFFFDF741FC02460B46484604F024FD2E
:102BF0003220FFF70FFE0135ADE700BF000048426D
:102C0000608E00084F8E0008658E0008002307B50F
:102C1000012140200193FFF725FA044B044801A944
:102C20000193FFF705F803B05DF804FBFF00031004
:102C30000018014038B505460C46FFF7E7FF14229F
:102C400041F2BF21642000F0BDFE4FF4807158486E
:102C5000FFF73EF856484FF40071FFF739F8681E49
:102C600004281CD8DFE800F00325405B760000F064
:102C7000CBFD01214E48FFF72BF802214C48FFF70E
:102C800029F80025A5420CDB01214948FFF722F86D
:102C900002214748FFF71EF8464804F003FD0020D4
:102CA00038BD04F0D1F84FF4FA70FFF7B3FD0135E9
:102CB000E8E700F045FE04213D48FFF70BF8082146
:102CC0003B48FFF705F80025A54205DB04213848FD
:102CD000FFF700F80821DCE704F0D2F84FF4FA70AF
:102CE000FFF798FD0135EFE700F0FEFC10213048BA
:102CF000FEF7EEFF20212E48FEF7ECFF0025A5424F
:102D000005DB10212A48FEF7E5FF2021C1E704F08A
:102D100063F84FF4FA70FFF77DFD0135EFE700F03F
:102D20002BFD40212248FEF7D5FF80212048FEF7E9
:102D3000CFFF0025A54205DB40211D48FEF7CAFF55
:102D40008021A6E704F064F84FF4FA70FFF762FD03
:102D50000135EFE75F2142F20F7000F03BFC0121EB
:102D60001348FEF7B7FF02211148FEF7B1FF042117
:102D70000F48FEF7ADFF08210D48FEF7ABFF4021DD
:102D80000B48FEF7A7FF80210948FEF7A1FF10219D
:102D90000748FEF79FFF20210548FEF799FF00F046
:102DA000CFFD00F0A1FC00F0E7FC00F02DFD73E783
:102DB00000180140DC8E00082DE9F74F07460E464B
:102DC00015464FF000091C465300C3F1030A1FFAD1
:102DD00089F8454538D840F0908007EB050805EBA9
:102DE00006091FFA88F81FFA89F922464946404623
:102DF000761B01F093FAB6B22246494640467D1B47
:102E000001F08CFAADB222463146404601F086FA16
:102E100022463146284601F081FA2246494640467C
:102E200001F07CFA22464946284601F077FA22460C
:102E30003146404601F072FA22463146284603B038
:102E4000BDE8F04F01F06ABA07EB08039BB2A9197D
:102E5000A7EB080B184689B21FFA8BFB2246019399
:102E6000009101F05BFA58462246009901F056FAAB
:102E7000019B711B184689B22246009101F04EFA5F
:102E800058462246009901F049FAEB199BB2A7EB8C
:102E9000050B06EB0801184689B222461FFA8BFB88
:102EA0000093019101F03AFA22465846019901F047
:102EB00035FAA6EB0808009B1FFA88F81846224648
:102EC000414601F02BFA22464146584601F026FAC7
:102ED000BAF1000F1FFA89F3A9BF5B1B0AEB83034A
:102EE0000AEB830305F1FF35B2BF03F1060A03F1D4
:102EF0000A0AADB209F1010969E703B0BDE8F08F34
:102F00002DE9F74F0E4691469A4605460C9F0090D4
:102F1000013F17F8013F5AB213B903B0BDE8F08F73
:102F2000002AF9DB0D2B06F1100B03D1009D1FFACF
:102F30008BF6EEE7202B9CB298BF0024B046174BCF
:102F400084BF203CA4B203EB04141FFA8BF301935B
:102F50004FF0000B8023207843FA0BF2104217D079
:102F60004A4605EB0B00414680B201F0D7F90BF160
:102F7000010BBBF1080FEDD1019B08F101011FFA14
:102F800081F8434504F10104E2D10835ADB2C0E750
:102F9000D145ECD0524605EB0B00E4E7138F000857
:102FA00030B5044685B001F07BF8601E042806D8D1
:102FB000DFE800F003080B4E5A0001F0D9F90020B9
:102FC00005B030BD01F0CCF9F9E74FF4784001F0DD
:102FD000B2F94FF4FA70FFF71DFC4FF4FC6001F0FA
:102FE000AAF94FF4FA70FFF715FC1F2001F0A3F9BE
:102FF0004FF4FA70FFF70EFC4FF6FF7001F09BF9EB
:103000004FF4FA70FFF706FC002001F094F94FF43A
:10301000FA70FFF7FFFB4FF6E07001F08CF94FF408
:10302000FA70FFF7F7FB4EF67D7001F084F94FF46C
:10303000FA70FFF7EFFB48F2104001F07CF94FF413
:10304000FA70FFF7E7FB44F2082001F074F9B6E7E5
:103050004FF6FF7001F06FF932214FF478431422DC
:103060000846FFF7A9FEAAE74FF6FF7001F063F9E3
:1030700000233024ADF80C3003AD4FF6FF70E4B2FE
:103080008DF80C4001F057F938214FF4FC630846E5
:103090004FF478420095FFF733FF01344FF4FA7094
:1030A000FFF7B8FBE3B25B2B64B2E6D187E7000021
:1030B0002DE9F0410646002400F002FD0F4FDFF835
:1030C000448020210D48FFF762FB0128F9D13846E2
:1030D000FFF759FB0546014601343846FFF74FFB21
:1030E000A4B229464046FFF74AFBB442E9D104485E
:1030F00004F0D8FA0020BDE8F08100BF0044004091
:103100002A950008003801402DE9F04106460024C8
:1031100000F076FD0F4FDFF8448020210D48FFF7C7
:1031200036FB0128F9D13846FFF72DFB054601464D
:1031300001343846FFF723FBA4B229464046FFF787
:103140001EFBB442E9D1044804F0ACFA0020BDE80B
:10315000F08100BF001800402A95000800380140A7
:1031600030B5002489B01C22002101A804F0E5FA42
:10317000012110200094FEF775FF01210420FEF7C5
:1031800071FF01214FF40070FEF76CFF4FF44040D7
:10319000FEF708FF3C2369461D48ADF800308DF866
:1031A0000340FEF745FD302369461A48ADF800306C
:1031B0008DF80340FEF73CFD1748FEF7D5FA0125D0
:1031C0004FF46023144801A9CDE903340194ADF80C
:1031D00008408DF81450FEF7E9FA29460E48FEF72C
:1031E0000DFB0D482146FEF77DFB0B48FEF70FFB5C
:1031F0000948FEF711FB0028FAD10748FEF710FB3B
:10320000054C2046FEF711FB0028FAD109B030BD6D
:10321000001001400008014000240140014608B5AB
:10322000094807230122FEF70DFB01210648FEF79E
:1032300000FB02210448FEF74FFB0028F9D0BDE84F
:1032400008400148FEF745BB0024014010B5044684
:103250000848FEF750FB231808D4B3F5805F40F60A
:10326000FF7002DA844203D098B210BD0020FCE760
:103270002046FAE700240140002300220360426058
:103280000372704730B50C46002187B01022054606
:1032900002A8019104F051FA01214FF48000FEF7D9
:1032A000EDFE01210820FEF7DDFE124B01A91248B8
:1032B0000193FEF7BDFC114BADF8104003934FF4A2
:1032C0008063ADF812304FF480430D4C02A92046C4
:1032D000ADF814300295FEF755FD20460121FEF7AA
:1032E000BBFD01212046FEF7DBFD3220FFF792FAFD
:1032F00007B030BD000C031C000C01400000FFBFF4
:103300000058004007B501212120FEF7ABFE1B232A
:10331000ADF804304823044801A98DF80730FEF7C2
:1033200087FC03B05DF804FB00140140002307B5DF
:10333000012120200193FEF795FE044B044801A9CA
:103340000193FEF775FC03B05DF804FB0005031064
:103350000014014010B50F4C4FF4FA70FFF75AFA01
:1033600020464FF48071FEF7B3FC4FF48061204695
:10337000FEF7AEFC4FF4FA70FFF74CFA20464FF41C
:103380008071FEF7A7FC2046BDE810404FF4806135
:10339000FEF7A0BC00140140002110B586B0122237
:1033A00001A8009104F0C9F901210820FEF75AFE96
:1033B000204C01214FF48040FEF760FE1E4B694611
:1033C00020460093FEF734FC20464FF48051FEF770
:1033D0007FFC1A4B694620460093FEF729FC4FF408
:1033E0008043ADF800300423694620468DF8033051
:1033F000FEF71EFC124B694620460093FEF718FCB0
:103400004FF082724FF40033CDE9012308230D49B8
:10341000A4F55444CDE903130723204601A9ADF8D0
:103420001430FEF743FE01212046FEF75EFE06B093
:1034300010BD00BF000C0140001003100020031855
:10344000008003180100000270B50546C924104E23
:1034500002213046FEF763FE78B129460C48FEF79C
:1034600059FEC9240A4D01212846FEF758FE50B1E5
:103470000748FEF751FEC0B204E0013C14F0FF041F
:10348000E6D1002070BD013C14F0FF04EBD1F8E759
:1034900000380040012108B5094B18700948416007
:1034A000FEF796FB0848FEF79FFB0028FAD00021A4
:1034B0000448FEF78DFB0448FEF7AAFB002008BD78
:1034C000400100201C04024020000010F0B504461A
:1034D0008DB00F46164600212C2201A81D4604F08F
:1034E0002CF901210220FEF7B1FD2046FEF7A8FAD3
:1034F00010238022CDE903350023CDE905324FF4B6
:103500004052204601A9CDE90733CDE90A230993AA
:10351000CDE90176FEF73EFB0248FEF779FB0DB0E0
:10352000F0BD00BF2000001010B5012186B02C2096
:10353000FEF798FD1E4C01214FF40040FEF79EFD62
:103540001C4B694620460093FEF772FB20464FF461
:103550000041FEF7BDFB184B694618480093FEF783
:1035600067FB00234FF08272CDE901234FF0007218
:10357000A4F54C44204601A9CDE90323FEF796FDAE
:1035800020460121FEF7B1FD204601220221FEF76F
:10359000B8FD0B4A01230B490B48FFF797FF0B4B74
:1035A00069460B480093FEF743FB06B010BD00BF11
:1035B000000801400080031028000318000C01409F
:1035C000400100200C3C00401C040240005003104D
:1035D0000014014030B50C46012185B0054608466F
:1035E000FEF74CFD002301A94FF08040ADF80A30F2
:1035F000ADF80630ADF80850ADF80440FEF7CCFD4C
:1036000001224FF080401146FEF749FF054B684606
:103610000093FEF78FFC01214FF08040FEF725FF5D
:1036200005B030BD1C000001684620F007018D4642
:10363000012131B54FF08040FFF71EF8002840D03F
:10364000244C254D23882046C3F300132B72FFF72B
:1036500010F800B2002128602046FEF778FFB4F889
:1036600000341E4D04F58064C3F3001320462B7212
:10367000FEF7FFFF00B2002128602046FEF767FF3B
:10368000B4F80034164D04F58064C3F300132046EB
:103690002B72FEF7EEFF00B200212860204604F5F1
:1036A0009434FEF754FF23880E4DC3F300132046D5
:1036B0002B72FEF7DEFF00B2286000212046FEF7E5
:1036C00046FF4FF080400121FEF7E1FFBDE83140A9
:1036D000854670470004004044010020500100204E
:1036E0005C0100206801002070B5012188B0022033
:1036F000FEF7C4FC01210420FEF7B4FCC023ADF8A2
:103700000430482301A919488DF80730FEF790FAD4
:1037100002A8FEF799FE00254FF6FE73144C02A98D
:103720002046CDE902538DF81050FEF735FD2A46AC
:103730002B4620460321FEF7BBFE01260423CDE9DC
:1037400005360A23204605A9ADF81C30FEF731FFE7
:1037500029462046FEF7FBFE31462046FEF785FE51
:103760000448FFF789FD08B070BD00BF00080140A4
:10377000000400404401002070B5012188B00420FD
:10378000FEF77CFC01210820FEF76CFCC023ADF89D
:103790000430482301A919488DF80730FEF748FA8C
:1037A00002A8FEF751FE00254FF6FE73144C02A945
:1037B0002046CDE902538DF81050FEF7EDFC2A4665
:1037C0002B4620460321FEF773FE01260423CDE994
:1037D00005360A23204605A9ADF81C30FEF7E9FEA0
:1037E00029462046FEF7B3FE31462046FEF73DFE51
:1037F0000448FFF741FD08B070BD00BF000C014058
:10380000000800405001002070B5012188B0082058
:10381000FEF734FC01210420FEF724FC0326482394
:1038200001A91A488DF80730ADF80460FEF700FAD8
:1038300002A8FEF709FE00254FF6FE73144C02A9FC
:103840002046CDE902538DF81050FEF7A5FC2A461C
:103850002B4631462046FEF72BFE01260423CDE9F8
:1038600005360A23204605A9ADF81C30FEF7A1FE57
:1038700029462046FEF76BFE31462046FEF7F5FD51
:103880000448FFF7F9FC08B070BD00BF0008014014
:10389000000C00405C01002030B50C4685B00546A8
:1038A00001211020FEF7EAFB0023ADF804400D4C87
:1038B00001A92046ADF80A30ADF80630ADF8085041
:1038C000FEF76AFC012220461146FEF7E8FD064B92
:1038D00068460093FEF72EFB01212046FEF7C5FD4A
:1038E00005B030BD001000403600000130B50C4678
:1038F00085B0054601212020FEF7C0FB0023ADF86E
:1039000004400D4C01A92046ADF80A30ADF8063050
:10391000ADF80850FEF740FC012220461146FEF7A4
:10392000BEFD064B68460093FEF704FB01212046CE
:10393000FEF79BFD05B030BD0014004037000001CC
:1039400030B5012189B04FF40050FEF78BFB012107
:103950001020FEF787FBC023ADF80430482301A9EF
:1039600016488DF80730FEF763F902A8FEF76CFDE4
:1039700000254FF6FE73124C02A92046CDE90253F2
:103980008DF81050FEF708FC2A462B4603212046EE
:10399000FEF78EFD05A8FEF760FD0A23204605A967
:1039A000ADF81C30FEF705FE29462046FEF7CFFD98
:1039B00001212046FEF759FD09B030BD001001403D
:1039C00000340140F0B500251646102289B00746A4
:1039D0000C460DEB02002946009503F0AEFE0121D6
:1039E0002F48CDE90155ADF80C50FEF73BFB012106
:1039F0004020FEF737FB01210846FEF733FB01218B
:103A00002848FEF76FF9284B694628480093FEF7CF
:103A10000FF9274B694627480093FEF709F9ADF8DF
:103A20000440254C01A92046ADF80870ADF80A50B5
:103A3000ADF80650FEF7B0FB204B204604A90493D6
:103A4000ADF81660ADF81850FEF7F4FB204604A957
:103A5000FEF730FC204604A9FEF774FC204604A9BA
:103A6000FEF7B6FC20460121FEF70BFD2946204655
:103A7000FEF749FD29462046FEF74DFD2946204622
:103A8000FEF753FD29462046FEF757FD204601214B
:103A9000FEF72DFD01212046FEF7E7FC09B0F0BD41
:103AA0002000080010001380FF03031000180140DD
:103AB00000AA031800140140004C014070000100EE
:103AC00010B5002486B01022214602A8009403F00D
:103AD00034FE4FF480622B492B48019403F0ECF93B
:103AE00000284CD1294803F0DDFD01214FF40030BE
:103AF000FEF7C4FA01212020FEF7B4FA012108469E
:103B0000FEF7B0FA01210820FEF7ECF8204B6946D9
:103B100020480093FEF78CF84023ADF800300423D2
:103B200069461C488DF80330FEF782F800234FF4F5
:103B30001652CDE902234FF4402202A91648ADF8EF
:103B400014300492FEF7A8FD012240F225511248DC
:103B5000FEF7F2FD012240F224410F48FEF7ECFD92
:103B60000E4B01A80193FEF7E5F901210A48FEF783
:103B7000D7FD01210848FEF7F7FD06B010BD084843
:103B8000B1E700BF85010020740100207595000891
:103B900020000318001401400044004026010101E8
:103BA0007F9500080048704784010020684620F097
:103BB00007018D4619B50F4C40F225512046FEF7FE
:103BC000ECFD50B12046FEF7DEFDC1B20A4803F01D
:103BD00092F9BDE819408546704740F224412046DD
:103BE000FEF7DBFD0028F4D001222388A388034BD5
:103BF0001A70EEE7004400407401002084010020A8
:103C000030B50024102587B02A46214602A8019429
:103C100003F093FD01214020FEF730FA28460121F0
:103C2000134DFEF71FFA134B284601A90193FDF728
:103C3000FFFF0223ADF80430042328460DEB0301F7
:103C40008DF80730FDF7F4FF4FF41653CDE9023439
:103C50004FF44023ADF81440074C02A920460493CA
:103C6000FEF71AFD01212046FEF75AFD07B030BDD0
:103C700000100140010003180018004010B503F0C7
:103C800030FD0446FCF7DEFB0022074BFCF76EFD1F
:103C900002460B4605490648C1E904232146BDE812
:103CA000104003F0C9BC00BF00002440A80500205C
:103CB0008695000810B503F014FD0446FCF7C2FB1E
:103CC0000022074BFCF752FD02460B460549064809
:103CD000C1E906232146BDE8104003F0ADBC00BF9A
:103CE00000408F40A8050020A995000810B503F0FA
:103CF000F8FC0446FCF7A6FB02460B4604490548BF
:103D0000C1E90E232146BDE8104003F095BC00BF79
:103D1000A8050020CF95000810B503F0E2FC04468A
:103D2000FCF790FB02460B4604490548C1E9102305
:103D30002146BDE8104003F07FBC00BFA80500206D
:103D4000F495000810B503F0CCFC0446FCF77AFBB0
:103D50000022074BFCF70AFD02460B4605490648C0
:103D6000C1E912232146BDE8104003F065BC00BF45
:103D700000002440A80500201996000810B503F0A3
:103D8000B0FC0446FCF75EFB0022074BFCF7EEFCA0
:103D900002460B4605490648C1E902232146BDE813
:103DA000104003F049BC00BF000024400006002082
:103DB0003F96000810B503F094FC0446FCF742FB64
:103DC0000022074BFCF7D2FC02460B460549064889
:103DD000C1E906232146BDE8104003F02DBC00BF19
:103DE00000002440000600206996000808B503F092
:103DF00078FC044B01465870BDE80840024803F0C7
:103E00001BBC00BF000600209396000808B503F015
:103E100068FC044B01461870BDE80840024803F0F6
:103E20000BBC00BF000600209696000840F201136C
:103E3000002203800023C0E90223C0E90623C0E971
:103E40000423704770B586B004460D46FFF7AAFEFE
:103E50000378002B59D0344803F040F8334E024623
:103E60003146314803F075F896F90030232B58D1CC
:103E700000220123CDE90022CDE90222CDE904226E
:103E8000F05610B11F2B12D100209DF90020002AFE
:103E900043D000283ED09DF90830002B3AD00026B0
:103EA000B54220DC6946224803F0C6FB24E03A28EC
:103EB00003F1010306D10022F15609B11E2B09DDE1
:103EC0000120E2E7062ADFBF06A9891801F8180CCD
:103ED0000132D5E70E2ADFBF06A8801800F8101CB3
:103EE00001320133E8E721466846FDF7CDFA70B9A3
:103EF000A36863B102A89847202200210B4803F071
:103F00001CFCFFF74FFE0023037006B070BD0136A6
:103F10000C34C5E769460748C6E7074803F0C2FB0B
:103F2000EAE70648FAE700BF740100208505002093
:103F3000B8960008D3960008FE960008239700085C
:103F40000EB42DE9F041C3B049AB53F8042B06463B
:103F50004FF4807102A8019303F05AFE041E13DD92
:103F6000FF2CA8BFFF24002702AD15F8018B80218C
:103F70003046FEF70CFC0028F9D0414630460137A8
:103F8000FEF7FDFBBC42F0D143B0BDE8F04103B009
:103F90007047000013B5FFF7C7FA094C0121402014
:103FA000FEF760F8074B204601A90193FDF740FE9C
:103FB0004FF480612046FDF78BFE02B010BD00BFBC
:103FC000001801400004031038B504460A4D4FF4B0
:103FD00000412846FDF77EFE4FF480410748FDF77B
:103FE00079FE2046FFF756FA2846BDE838404FF4E0
:103FF0000041FDF76DBE00BF000801400014014004
:1040000038B504460A4D4FF400412846FDF762FEDC
:104010004FF480410748FDF75BFE2046FFF73AFA70
:104020002846BDE838404FF40041FDF751BE00BFBF
:10403000000801400014014038B504460B4D4FF410
:1040400000412846FDF746FE4FF480410848FDF741
:104050003FFE200AFFF71EFAE0B2FFF71BFA2846E0
:10406000BDE838404FF40041FDF732BE0008014082
:104070000014014010B5094C4FF480512046FDF763
:1040800029FE6420FEF7C6FB20464FF48051FDF761
:104090001FFEBDE810403220FEF7BCBB00140140FB
:1040A00008B5FFF777FFFFF7E5FF1120FFF78CFF5B
:1040B0007820FEF7AFFBB120FFF786FF0120FFF766
:1040C0009FFF2C20FFF79CFF2D20FFF799FFB220C8
:1040D000FFF77AFF0120FFF793FF2C20FFF790FFF7
:1040E0002D20FFF78DFFB320FFF76EFF0120FFF7B4
:1040F00087FF2C20FFF784FF2D20FFF781FF012091
:10410000FFF77EFF2C20FFF77BFF2D20FFF778FFC6
:10411000B420FFF759FF0720FFF772FFC020FFF719
:1041200053FFA220FFF76CFF0220FFF769FF8420F6
:10413000FFF766FFC120FFF747FFC520FFF760FFCD
:10414000C220FFF741FF0A20FFF75AFF0020FFF7C8
:1041500057FFC320FFF738FF8A20FFF751FF2A20BF
:10416000FFF74EFFC420FFF72FFF8A20FFF748FF1D
:10417000EE20FFF745FFC520FFF726FF0E20FFF7D3
:104180003FFF3620FFF720FFC820FFF739FFE02070
:10419000FFF71AFF0F20FFF733FF1A20FFF730FF5A
:1041A0000F20FFF72DFF1820FFF72AFF2F20FFF722
:1041B00027FF2820FFF724FF2020FFF721FF2220E0
:1041C000FFF71EFF1F20FFF71BFF1B20FFF718FF45
:1041D0002320FFF715FF3720FFF712FF0020FFF71E
:1041E0000FFF0720FFF70CFF0220FFF709FF102049
:1041F000FFF706FFE120FFF7E7FE0F20FFF700FFC4
:104200001B20FFF7FDFE0F20FFF7FAFE1720FFF738
:10421000F7FE3320FFF7F4FE2C20FFF7F1FE2920F4
:10422000FFF7EEFE2E20FFF7EBFE3020FFF7E8FE53
:104230003020FFF7E5FE3920FFF7E2FE3F20FFF7D1
:10424000DFFE0020FFF7DCFE0720FFF7D9FE03208A
:10425000FFF7D6FE1020FFF7D3FE2A20FFF7B4FEAB
:104260000020FFF7CDFE0020FFF7CAFE0020FFF779
:10427000C7FE7F20FFF7C4FE2B20FFF7A5FE00201E
:10428000FFF7BEFE0020FFF7BBFE0020FFF7B8FEE1
:104290009F20FFF7B5FEF020FFF796FE0120FFF705
:1042A000AFFEF620FFF790FE0020FFF7A9FE3A20B0
:1042B000FFF78AFE0520FFF7A3FEBDE8084029208E
:1042C000FFF782BEF8B5074616460D461C462A2063
:1042D000FFF77AFE0020FFF793FEB81CC0B2FFF78D
:1042E0008FFE0020FFF78CFEB01CC0B2FFF788FEE7
:1042F0002B20FFF769FE0020FFF782FEE81CC0B20A
:10430000FFF77EFE0020FFF77BFEE01CC0B2FFF748
:1043100077FEBDE8F8402C20FFF756BE10B51446D6
:104320004B1C421C9BB292B2FFF7CCFF2046BDE86B
:104330001040FFF781BE7F23002170B51A46064664
:104340000846FFF7BFFF2C20FFF73EFE80258024A4
:104350003046FFF771FE013CFAD1013DF7D170BD47
:104360004FF480610148FDF7B3BC00BF0018014065
:104370004FF480610148FDF7ADBC00BF001801405B
:1043800037B50F4B04465A787AB9D3E906230D4D59
:10439000284602F05FFAD5E902230B49CDE9002354
:1043A000D5E900230948FFF7CBFD00230193084B13
:1043B000052200932046002300F07CF803B030BDB6
:1043C00000060020A80500205A970008004400407D
:1043D0008143000870B51F4D1F4C0646D4E91423D5
:1043E000D5E904018CB0FBF7E1FE2B78C5E90401A7
:1043F000002B24D1204605F1100205F1180102F02E
:1044000063FBD5E904231549CDE90A23D5E9062341
:104410001348CDE90823D4E90C23CDE90623D4E9D8
:104420000A23CDE90423D4E90823CDE90223D4E902
:104430000223CDE90023D4E90023FFF781FD002307
:104440000193084B052200933046002300F032F818
:104450000CB070BD00060020A805002041970008A0
:1044600000440040D543000813B50024084B322215
:10447000009301940023074800F01CF8064B3222F9
:10448000009301940023054800F014F802B010BD19
:104490008143000838060020D5430008200600208C
:1044A00018B1034B1860002070474FF0FF30704781
:1044B000500600202DE9F047DDF82080154699468A
:1044C000044600282CD0B8F1000F29D0164B1A68EA
:1044D00032B316498A46086818B184421AD1236853
:1044E0000B609047461941EB0907099BC4E9026735
:1044F000DAF800100D48C4F81080636129B1D1E9E1
:104500000223BB4208BFB24207D3216004600020EF
:10451000BDE8F08701460068DEE708460968EDE778
:104520004FF0FF30F4E700BF500600205406002093
:10453000F8B5134B1B68FBB19847124F04460D4664
:104540003E460021386898B1D0E902239D4208BF59
:10455000944203D201B13060101B0CE002690121CA
:1045600003681AB1416933609047EAE71846EAE701
:1045700001B130600020F8BD4FF0FF30FBE700BF15
:10458000500600205406002010B50B4C4FF07C5113
:10459000A4EB6004FCF7B8FB2146FCF7B5FB214611
:1045A000FCF7B2FB01464FF07F50FCF7A3FA21461F
:1045B000FCF7AAFB10BD00BFDF59375F2DE9F04FB4
:1045C000064687B00D461846002114469846FCF76B
:1045D0002FFD0027DDF840A0DDF8449058B13946A2
:1045E0005046FCF725FD30B139464846FCF720FD22
:1045F000002840F0FD8041464046FCF785FB5146CF
:1046000083465046FCF780FB01465846FCF774FA97
:10461000494683464846FCF777FB01465846FCF777
:104620006BFAFFF7B1FF834601464046FCF76CFB8F
:10463000594601905046FCF767FB594602904846A0
:10464000FCF762FBDFF8C092DFF8B8B2A84BA94ACA
:1046500003901068D9F80010DBF800A01A680492E3
:10466000FCF752FB049980465046FCF74DFB01468F
:104670004046FCF73FFA9F4A9D4B8046DBF800001E
:1046800011681B68D9F8002005930492FCF73CFBE5
:10469000049A059B114682461846FCF735FB0146F5
:1046A0005046FCF729FA8246DBF80000DBF80010E0
:1046B000D9F800B0D9F800300493FCF725FB4FF08F
:1046C0007C51FCF717FA049B814619465846FCF7C3
:1046D0001BFB01464846FCF70FFA8146014602984B
:1046E000FCF712FB514683460398FCF70DFB01468D
:1046F0005846FCF7FFF9414604900398FCF704FB89
:10470000494683460198FCF7FFFA01465846FCF7F4
:10471000F1F9514681460198FCF7F6FA4146824686
:104720000298FCF7F1FA01465046FCF7E3F9DFF88E
:10473000DCB180460021DBF80000FCF7A1FCDFF8CB
:10474000D0A16D4A049B002800F04981DBF80000ED
:10475000176819460193FCF7D7FA3946FCF7CCF9EC
:10476000654A49461060DBF80000DAF80070FCF793
:10477000CBFA3946FCF7C0F9604FCAF80000DBF805
:104780000000D7F800B04146FCF7BEFA5946FCF7E6
:10479000B3F9594A386011683046FCF7ADF9DAF8D8
:1047A000001006462846FCF7A7F93968054620465A
:1047B000FCF7A2F90446019B514F19463868FCF7F3
:1047C000A3FA01463046FCF797F949460646386891
:1047D000FCF79AFA01462846FCF78EF94146054651
:1047E0003868FCF791FA01462046FCF785F9044643
:1047F0004FF07C513046FCF787FA4FF07C5107466A
:104800002846FCF781FA4FF07C5180462046FCF7A1
:104810007BFA3C4E374D33683B4C0193344B2A684E
:10482000196823688146029102F1004039460592D9
:104830000393FCF769FA029982464046FCF764FA52
:1048400001465046FCF756F9039B824649461846F6
:10485000FCF75AFAD6F800B001465046FCF74AF980
:104860005946FCF749F930602368019938460393AB
:10487000FCF74AFA029982464846FCF745FA014697
:104880005046FCF739F9039B824641461846FCF72F
:104890003BFAD5F800B001465046FCF72BF95946D3
:1048A000FCF72AF92860236801990493104B4046CD
:1048B000D3F800B0FCF728FA059A8246114648461C
:1048C0000392FCF721FA01465046FCF713F9049BCA
:1048D000824639461846FCF717FA01465046FCF75F
:1048E0000BF95946FCF708F9014B0199186011E0E2
:1048F000680600206406002058060020600600209C
:104900009C000020980000206C060020700600200B
:104910005C0600204846FCF7F7F9039A81461146E9
:104920004046FCF7F1F901464846FCF7E5F80299E4
:1049300080463846FCF7E8F9D4F800A00146404626
:10494000FCF7D8F85146FCF7D7F82060306831689A
:104950002B682A680293254B0192D3F800A0D3F864
:1049600000B0FCF7D1F9019A029B114607461846A0
:10497000FCF7CAF901463846FCF7BEF85946074627
:104980005046FCF7C1F901463846D4F80080D4F807
:104990000090FCF7B1F8494607464046FCF7B4F9E9
:1049A00001463846FCF7A8F8FFF7EEFD07463068E9
:1049B0003946FCF7A9F9306028683946FCF7A4F9B4
:1049C00028600A4D39462868FCF79EF9286020685F
:1049D0003946FCF799F9206007B0BDE8F08F176001
:1049E000034ACAF800701760E6E600BF68060020B8
:1049F000600600200000000008B51749FCF738FAEF
:104A0000164B1860FBF730FD11A3D3E90023FBF729
:104A1000CDFB02460B460EA1D1E90001FBF7A6FE35
:104A2000FCF714F80E4B18601B2000F0FBF9C0F3E4
:104A3000C10002280B4B07D0032807D0012814BF60
:104A4000094A0A4A1A6008BD094AFBE7094AF9E718
:104A50009A9999999999B93F00007A44A000002049
:104A6000A4000020A80000200000034300008342AF
:104A700033330342333383412DE9F0471C46264B41
:104A8000824650421D688846FCF7EAF8234B1968B5
:104A9000FCF7EEF9224B1968FCF736F92168FCF7B0
:104AA0002BF82946FCF730F9FBF7DEFC06464046BA
:104AB0000F46FBF7C7FC804689465046FBF7C2FC11
:104AC00042464B4603F044FB0022164BFBF724FD05
:104AD0000FA3D3E90023FBF749FE804689464FF038
:104AE0007E502946FCF706F8FBF7BEFC02460B4653
:104AF00040464946FBF710FD32463B46FBF756FB66
:104B0000FBF7A4FF2060BDE8F08700BFAFF3008093
:104B1000182D4454FB210940A4000020A8000020C7
:104B2000A0000020008066402DE9F04105460C46BB
:104B30001646344F4FF400313846FDF7D7F90028B8
:104B4000F8D101212F48FDF793F9DFF8C0802D4FF0
:104B500041463846FDF7BEF90028F9D00022D021A1
:104B60002848FDF7AEF9DFF8B080264F41463846B9
:104B7000FDF7B0F90028F9D029462248FDF79CF945
:104B8000214F204D39462846FDF7A4F90028F9D0D9
:104B900001211C48FDF76CF91C4F1A4D3946284677
:104BA000FDF798F90028F9D00122D0211548FDF72A
:104BB00088F9174F134D39462846FDF78BF9002821
:104BC000F9D0104D134F013CE4B2FF2C09D1012163
:104BD0000C48FDF759F9BDE8F04101210948FDF7FE
:104BE0005FB91CB921462846FDF75AF939462846CF
:104BF000FDF770F90028F9D02846FDF75FF906F8AF
:104C0000010BE0E7005800408400070001000300AA
:104C10000200030040000300820007002DE9F0417C
:104C200006460D461446234F4FF400313846FDF733
:104C30005DF90028F8D101211E48FDF719F9DFF8C8
:104C40007C801C4F41463846FDF744F90028F9D0D6
:104C50000022D0211748FDF734F9DFF86480154FA2
:104C600041463846FDF736F90028F9D0314611485B
:104C7000FDF722F9104F0F4E39463046FDF72AF95D
:104C80000028F9D00B4E0C4F2544AC4205D1BDE8AD
:104C9000F04101210748FDF7F7B8304614F8011B31
:104CA000FDF70AF939463046FDF714F90028F9D026
:104CB000EBE700BF0058004084000700010003003C
:104CC000820007000000000007B5022101AA412070
:104CD000FFF72AFF9DF804309DF8050040EA032005
:104CE00000B2FBF7AFFB0022094BFBF73FFD06A329
:104CF000D3E90023FBF75AFAFBF7A8FE03B05DF8EF
:104D000004FB00BFAFF30080A4703D0AD7434240CC
:104D10000040754073B506460D46144606216A46A6
:104D20004320FFF701FF00209DF800209DF801308F
:104D300043EA022333809DF802209DF8033043EAC2
:104D400002232B809DF804209DF8053043EA0223BE
:104D5000238002B070BD73B506460D461446062189
:104D60006A463B20FFF7E0FE00209DF800209DF8FA
:104D7000013043EA022333809DF802209DF803307E
:104D800043EA02232B809DF804209DF8053043EA76
:104D90000223238002B070BD07B58DF807100DF116
:104DA00007020121FFF73AFF03B05DF804FBC100E1
:104DB00001F0F8011B20FFF7EFBFC10001F0F8017F
:104DC0001C20FFF7E9BFBB280CD861280CD8292884
:104DD0000CD813280CD809288CBF052106211A20CD
:104DE000FFF7DABF0121FAE70221F8E70321F6E72E
:104DF0000421F4E7042838BF0420B0F57A7F10B509
:104E00004FF47A71044628BF4FF47A74B1FBF4F181
:104E100001391920C9B2FFF7BFFF6008BDE8104093
:104E2000FFF7D1BF07B501210DF10702FFF77CFEA7
:104E30009DF8070003B05DF804FB000008B50021F1
:104E40001D48FEF71FFA80216B20FFF7A5FF6420A5
:104E5000FDF7E0FC00216B20FFF79EFF0320FFF72A
:104E6000A6FF0020FFF7A9FF3220FFF7C3FF0021B4
:104E70003820FFF791FF00216A20FFF78DFF002106
:104E80002320FFF789FF80213720FFF785FF75205A
:104E9000FFF7C8FFD0280CD101216B20FFF77CFF62
:104EA00000216C20FFF778FF3220FFF7A3FF0020DE
:104EB00008BD0120FCE700BF801A060000000000CA
:104EC0002DE9F04F8BB0044608AA0DF11E0107A88A
:104ED000FFF741FF0DF1260209A90DF12200FFF7AE
:104EE00019FFBDF91C00FBF7ADFA8BA3D3E9002332
:104EF000FBF712FBFBF7AAFD0746BDF92600DFF81A
:104F000038B20028BCBF00F57F503F308013FBF75C
:104F1000A7FE8046BDF924000028BCBF00F57F50E5
:104F20003F308013FBF79CFE0646BDF922000028A7
:104F3000BCBF00F57F503F308013FBF791FE054664
:104F4000BDF92000FBF77EFA73A3D3E90023FBF73A
:104F5000E3FAFBF77BFD0190BDF91E00FBF772FA47
:104F60006DA3D3E90023FBF7D7FAFBF76FFD4246A9
:104F70003B46314600902846FFF720FBDFF8BC8116
:104F8000694F6A4BD3F800A0DBF80050684BD8F8A3
:104F90000060D7F80090C3F800A05D609E60C3F881
:104FA0000C9029462846FBF7AFFE31460390304669
:104FB000FBF7AAFE039B01461846FBF79DFD014641
:104FC000FBF79AFD01464FF07E50FBF793FDFBF790
:104FD0004BFA02460B4650462946CDE90423FBF71F
:104FE00093FE494603903046FBF78EFE0146039838
:104FF000FBF782FD0146FBF77FFDFBF735FADDE9A4
:10500000042303F0A5F800224A4BFBF785FA44A3DA
:10501000D3E90023FBF7AAFBFBF718FD314620601C
:105020005046FBF771FE494606462846FBF76CFEE4
:1050300001463046FBF75EFD0146FBF75DFDFBF7E1
:1050400013FA03F055F806460D4600223046394B58
:1050500005F10041FBF760FA31A3D3E90023FBF728
:1050600085FBFBF7F3FC314BDBF800B06060D8F850
:105070000050D3F800A0D7F80090D8F80000D8F876
:1050800000604FF04041FBF73FFE3146FBF73CFE2E
:10509000D7F800803F68064641464046FBF72CFDA6
:1050A0003946FBF731FE01463046FBF723FD4FF052
:1050B0007E51FBF721FDFBF7D7F906460F46584610
:1050C0005946FBF719FD2946FBF71EFE51460546DA
:1050D0005046FBF711FD4946FBF716FE01462846F0
:1050E000FBF70AFDFBF7C0F932463B4603F030F808
:1050F00001F10047002239460E4BFBF70DFA08A3D9
:10510000D3E90023FBF732FBFBF7A0FCA0600BB058
:10511000BDE8F08FAFF30080D508FD4CBD6E513F68
:105120006E861BF0F92109406C06002098000020D3
:105130007406002000806640640600206806002097
:105140002DE9F84307460E4615461C46DFF88C80CD
:105150004FF400314046FCF7C9FE0028F8D1012188
:105160001E48FCF785FEDFF87C90DFF8708049462A
:105170004046FCF7AFFE0028F9D039460022174818
:10518000FCF79FFEDFF86080144F41463846FCF77D
:10519000A1FE0028F9D031461048FCF78DFE104FD3
:1051A0000E4E39463046FCF795FE0028F9D00B4EDE
:1051B0000B4F2544AC4205D1BDE8F8430121074817
:1051C000FCF762BE304614F8011BFCF775FE394649
:1051D0003046FCF77FFE0028F9D0EBE7005800408E
:1051E00084000700010003008200070007B50122C8
:1051F0008DF807100DF107030146D020FFF7A0FF3F
:1052000003B05DF804FB000008B500211948FEF763
:1052100039F880216B20FFF7E9FF6420FDF7FAFAE7
:1052200000216B20FFF7E2FF13211920FFF7DEFFBB
:1052300004211A20FFF7DAFF00211C20FFF7D6FF18
:1052400018211B20FFF7D2FF00213820FFF7CEFFE7
:1052500000216A20FFF7CAFF00212320FFF7C6FFC5
:1052600080213720FFF7C2FF01216B20FFF7BEFF2F
:10527000002008BD801A0600431C2DE9F0410E46AF
:10528000154616D10524124FDFF8488057F8043B25
:105290004BB193F9042032B15A79B24203D3294673
:1052A00040461B689847013CA4B2002CEED1BDE8F3
:1052B000F0810028FBD090F90430002BF7D043791F
:1052C0008B42F4D3BDE8F04103681146014818470A
:1052D00084070020840600202DE9F04F87B0814626
:1052E00017469846049123B3B0F1FF3F02D04379AB
:1052F0008B421ED33F4BFF21CDE900833E4A3B4604
:105300003E4802F0BCF927F00F0602B20499484665
:10531000FFF7B2FF06F11003039307F10F039B1B86
:10532000434423F00F033344344D0593059B9E42C1
:1053300002D107B0BDE8F08F32462846304902F06E
:1053400089F9B246B346162420235F4503D807EBFC
:1053500008025A451CD8A21C29192B554B7003343E
:10536000AB54039A0BF1010B5A45EED17C232B551C
:105370002023A01C23492C44637007EB080B5745DE
:1053800000F1010401D8DA450BD32B54204615E077
:1053900028199BF800201C4902F05CF903342023F3
:1053A000DFE79AF80020A2F1200CBCF15E0F1ED8B6
:1053B000284402F04FF9204620231249039A0AF1AB
:1053C000010A5245DBD120237C222B552B195A7020
:1053D0000D229A700A22DA70221D4846049912B2F0
:1053E000FFF74AFF039B1036103303939EE72E22EC
:1053F0002A54CBE7859700086597000884060020AB
:10540000CD970008E6970008E097000810B501B1B5
:105410008160064A0023114652F8044B14B941F842
:10542000230010BD0133052BF6D1FAE784070020D5
:105430000CB437B506AB53F8042B04460D460A48A6
:10544000FF21019302F0E4FBB0F5807FA8BF4FF489
:105450008070294602B22046FFF70EFF03B0BDE878
:10546000304002B0704700BF840600201FB578B9F5
:1054700085230293074B4FF0FF300193064B074AF9
:10548000009301231946FFF7D3FF05B05DF804FB35
:105490004171FAE72D98000853980008E997000831
:1054A0000A4604490346886810B1194601F00CB851
:1054B000704700BFAC000020F8B506460C4600253A
:1054C000084FAC4201DC20B2F8BD3846715DFDF7F3
:1054D00056F940213846FDF75AF90028F9D0013530
:1054E000EFE700BF00380140684620F007018D4615
:1054F00040F2255101B50748FDF74FF930B1054895
:10550000FDF741F941B2044800F076FFBDE80140E3
:1055100085467047003801409807002010B5074CB9
:10552000074B204607494FF40072A36600F034FE93
:105530002146BDE810400448FFF768BF98070020E7
:10554000B954000804080020AC00002002460023E3
:1055500070B598B20C560546161801330CB9347064
:1055600070BD5455F5E707B503468DF807100DF1EA
:1055700007000121984703B05DF804FBC3898289C5
:105580009A4206D90269591CC181D156806EFFF733
:10559000EABF7047C38910B5044633B10821806E55
:1055A000FFF7E1FFE389013BE38110BD0523074AD3
:1055B00052F8040B18B190F86010890704D4013B2D
:1055C0009BB2002BF4D11846704700BF100A002090
:1055D00038B503469B6E08464BB100224D1E91B272
:1055E0000132AC56002CFAD1984780B238BD18462B
:1055F000FCE7000090F8603010B5DB0704461AD5D0
:1056000011B10E49FFF7E4FF236820465968FFF700
:10561000DFFF0B492046FFF7DBFFA168094B20465F
:10562000002908BF1946FFF7D3FF20460649BDE809
:105630001040FFF7CDBF0549F9E700BF1B8D0008FB
:10564000E5980008CB980008CD980008D09800088D
:1056500008B5FFF7ABFF20B1BDE808400149FFF7EF
:10566000B7BF08BDE79800080A784AB14B7803F045
:105670000F03082B04D0036863B11B781A4209D0CA
:1056800090F86030DB0708D4487880F0100040F3D1
:10569000001070474FF0FF30704700207047002324
:1056A0000B72082310B518B9C3F1080040B210BD41
:1056B00000F00F042246092CC8BF573203F1FF3314
:1056C000CCBF52B23032DBB2CA540009EBE7000063
:1056D00008B5302109230B4A013B13F0FF0302F800
:1056E000011BF9D14378406803F00F03012B07D960
:1056F000072B05D9082B03D00249FFF7D0FF01483B
:1057000008BD00BF040A0020002330B5CB720A2474
:105710000B2380EAE072A2EBE0724AB9002811DAAA
:105720002D22013BDBB2CA54C3F10B0040B230BDA5
:10573000B2FBF4F504FB1522013B3032DBB2CA5454
:105740002A46EAE7F0D1013B3022DBB2EBE700006A
:1057500030B504460D46194A85B01068516801AB52
:1057600003C39068164918602046FFF731FF01A96E
:105770002846FFF7C9FF01ABC0F10B0119442046D1
:10578000FFF726FF0F492046FFF722FF0B233021AA
:1057900001AA013B9BB202F8011B002BF9D101A920
:1057A0002846FFF77CFF01A92046FFF711FF20469E
:1057B0000549FFF70DFF05B030BD00BFFE9800089A
:1057C000F0980008F99800081B8D000870B5044691
:1057D00008460E46FFF77CFF01462046FFF7F8FE1D
:1057E000C0F116052DB2002DD8BF0425013D2021A2
:1057F000A06EFFF7B8FEABB22DB2002BF6D17378D6
:1058000003F00F03012B36D822492046FFF7E0FEB4
:1058100020462149FFF7DCFE07253378A06E2B4197
:1058200013F0010F14BF78212D21FFF79CFE013DDD
:10583000F3D220461849FFF7CBFEA56EF068A5B15C
:10584000002342F20146C25C99B20D2A03F1010322
:10585000F9D826FA02F2D207F5D5242918D924213D
:10586000A8470321A36E0D4898472046BDE8704025
:105870000B49FFF7ADBE072B01D80A49C5E7082B36
:1058800001D10949C1E7092B0CBF08490849BCE708
:10589000A847EAE70A990008239900082699000812
:1058A0001B8D00080F990008149900081999000829
:1058B0001E99000870B50E490446866D0025FFF755
:1058C00087FEB4F85C3029B2994200DB70BD06EB6C
:1058D00001114B7803F00F03012B06D82046FFF788
:1058E000C3FE10B92046FFF771FF0135E9E700BF9D
:1058F0002A99000808B5FFF759FE18B1BDE808401D
:10590000FFF7D8BF08BD000070B50E490446866D8C
:105910000025FFF75DFEB4F85C3029B2994200DB48
:1059200070BD06EB01114B780E3303F00F03052B0E
:1059300006D82046FFF798FE10B92046FFF746FF2D
:105940000135E8E73C99000808B5FFF72FFE18B1CC
:10595000BDE80840FFF7D8BF08BD000070B50E498C
:105960000446866D0025FFF733FEB4F85C3029B29B
:10597000994200DB70BD06EB01114B7803F00F0379
:10598000082B06D12046FFF76FFE10B92046FFF71F
:105990001DFF0135E9E700BF4A99000808B5FFF788
:1059A00005FE18B1BDE80840FFF7D8BF08BD0000EC
:1059B00070B50E490446866D0025FFF709FEB4F860
:1059C0005C3029B2994200DB70BD06EB01114B78C7
:1059D00003F00F03092B06D12046FFF745FE10B94F
:1059E0002046FFF7F3FE0135E9E700BF59990008AB
:1059F00008B5FFF7DBFD18B1BDE80840FFF7D8BFD9
:105A000008BD000070B505460C46054E013CE4B2E9
:105A1000FF2C00D170BD31462846FFF7D9FDF5E7D0
:105A20006799000838B505468489C389E41A24B209
:105A3000002C05DC2846297BBDE83840FFF7E2BF93
:105A40002021A86EFFF78FFD013CF0E738B5B0F8D4
:105A50005230B0F85050B0F95420AB4238BF2B460A
:105A6000511E5B429A42C8BF0B460446A0F8543010
:105A7000FFF7D8FFB4F954200AB9E26038BDB4F892
:105A80005230206905331344052293FBF2F202EBF6
:105A900082029B1A04EB8303D96BFFF757FDA081A9
:105AA0000028EBD0E08121692046BDE83840FFF7AF
:105AB0008FBD00002DE9F04F8389044685B043B9BE
:105AC000FFF7F8FE0121204605B0BDE8F04FFFF7D3
:105AD00091BD00263546B0460269B0F834A0D654D0
