:040000006F00E0614C
:100004000000000000000000E2030000E60300001E
:10001400000000001C0600000000000000000000BA
:100024001C0600001C060000000000000000000088
:100034001C060000000000001C0600000000000078
:100044001C0600001C0600001C0600001C06000024
:100054001C0600001C0600001C0600001C06000014
:100064001C0600001C0600001C0600001C06000004
:100074001C0600001C0600001C0600001C060000F4
:100084001C0600001C0600001C0600001C060000E4
:100094001C0600001C0600001C0600001C060000D4
:1000A4001C0600001C0600001C0600001C060000C4
:1000B400242B00001C0600001C0600001C06000087
:1000C4001C0600001C0600001C0600001C060000A4
:1000D4001C060000E2490000363100001C06000046
:1000E4001C0600001C0600001C0600001C06000084
:1000F4001C0600001C0600001C0600001C06000074
:100104001C0600001C0600001C0600001C06000063
:100114001C0600001C060000E80300001404000094
:100124001C0600001C0600001C0600001C06000043
:100134001C0600001C0600001C0600001C06000033
:100144001C0600001C0600001C0600001C06000023
:100154001C0600001C0600001C0600001C06000013
:100164001C0600001C0600001C0600001C06000003
:100174001C0600001C0600001C0600001C060000F3
:100184001C0600001C0600001C0600001C060000E3
:100194001C0600001C0600001C0600001C060000D3
:1001A400000000000000000000000000000000004B
:0C01B4000000000000000000000000003F
:1001C000397101436EC619A0397141536AC866CAB4
:1001D00062CC5ECE19A0397101535AD056D252D496
:1001E0004ED64AD826DA22DC06DE3301614082820E
:1001F00041114AC026C222C406C68282B24D4101C4
:10020000024D924C224CB24B4101024B924A224A7F
:10021000B2494101024992442244B24041018280E4
:100220003D432A876373C3029377F700BDEFADE5C3
:10023000937606FF3D8ABA960CC34CC30CC74CC7D5
:100240004107E36BD7FE11E28280B306C3408A0602
:100250009702000096966780A6002307B700A306C2
:10026000B7002306B700A305B7002305B700A30412
:10027000B7002304B700A303B7002303B700A3020A
:10028000B7002302B700A301B7002301B700A30002
:10029000B7002300B700828093F5F50F9396850091
:1002A000D58D93960501D58D61B79396270097025A
:1002B000000096968682E78086FA9680C1171D8F89
:1002C0003E96E374C3F8A5B73367B500FD530D8BB5
:1002D00079E7B7877F7F9387F7F710419441B3722F
:1002E000F6003363F600BE92B3E262006395720CCF
:1002F0006318D6065041D441B372F6003363F6005A
:10030000BE92B3E262006396720A631BD604104584
:100310009445B372F6003363F600BE92B3E2620016
:10032000639F7208631ED6025045D445B372F6002F
:100330003363F600BE92B3E2620063987208631101
:10034000D60210499449B372F6003363F600BE92A8
:10035000B3E26200639172085105D105E30FD6F64E
:100360001317060193970601631CF7001357060144
:1003700093D706013305F7409375F50F91E9828015
:100380004183C1833305F7409375F50F91E1828076
:100390001377F70F93F7F70F3305F740828010219B
:1003A0009421050585056313D60075FA3305D640FB
:1003B000828011059105E314D6FE01458280210556
:1003C000A105E31ED6FC014582803105B105E31885
:1003D000D6FC014582804105C105E312D6FC0145EA
:1003E00082807300203001A0938701919843854556
:1003F00037150040050798C3EF10805811C5854593
:1004000037150040EF1040597300203003A50191CB
:1004100081458280411122C637140040854513056D
:100420000440EF10E05509C9130504408545EF105D
:10043000A0560545EF10D1383244410173002030F9
:10044000EFF21FDB37140300B71703003716030062
:1004500013078467938747688546130606698D45A9
:100460007D55EF40804AB717030037160300130786
:1004700084679387876B85461306866C8D457D550B
:10048000EF40A048B707002083A7870E3716030068
:100490001307846785461306866E8D457D55EF40AC
:1004A000C0468DBBEFF2DFD40945EF00F027EF1017
:1004B000A066716513050520EF10006CEF20402E3B
:1004C000EF20E030EF201037EF40E054953FEF2071
:1004D000906F41657D15EF30602109649305F457F5
:1004E0002545EF20500E9305F4572545EF20301396
:1004F000370500001305C540EF300037EF3080337B
:10050000EF50E260EFB0A26BEFB08278138581ED1F
:10051000EFB0A27C138501F3EF20F04EEF30003EE8
:10052000F5BFB71702409843B706FFF841111367AC
:10053000170098C3D84337060200758FD8C3984375
:10054000B706F7FEFD16758F98C39843B706FCFFF4
:10055000FD16758F98C3D843B70681FFFD16758FBA
:10056000D8C39843B70600ECFD16758F98C33707BC
:10057000FF0098C723A6070202C402C69843C166BB
:10058000558F98C3B716024005679C42F18F3EC64F
:10059000A24785073EC4B24781E7A247E397E7FE3B
:1005A000B71702409C431397E70063570706854738
:1005B0003EC632478547631FF704B7170240D8434A
:1005C000B706C1FFFD16D8C3D843D8C3D8431367B5
:1005D0000740D8C3D843758FD8C3D843B70629007E
:1005E000558FD8C39843B7060001558F98C39843D9
:1005F00093166700E3DD06FED843B7160240719BF1
:10060000D8C3D84313672700D8C32147DC42B18B36
:10061000E39EE7FE4101828002C661BF01A097010F
:1006200000209381A12C170101201301A19D1775B2
:100630000300130565F7970500209385A59C138695
:10064000019163FAC5008322050023A0550011051E
:100650009105E3EAC5FE1385019197B500209385C6
:10066000653D6377B500232005001105E36DB5FEF8
:10067000FD42739002BCAD4273904280B7620000AD
:100680009382820873900230970200009382C2978F
:1006900093E2320073905230EFF0BFE8970200000F
:1006A000938282E07390123473002030EFF25FB4D3
:1006B000B727014093870740631DF5008545130563
:1006C0000020EF00502F814513050020EF00B02ED1
:1006D00091B6B737014093870780E31BF5FE854548
:1006E00013050040EF00302D814513050040F9BF90
:1006F0005C413707F1E01307F7EF944D7D8F9C4184
:10070000D58FD44DD58FD441A206D58FD98F5CC15A
:100710001C4537F7F1FF1307D77FD4457D8F9C49E0
:10072000D58F94458606D58FD98F1CC55C55370764
:1007300010FF7D177D8FDC29FD1793F7F70FD20788
:10074000D98F5CD582801C4589C593E717001CC5ED
:100750008280F99BEDBF1C4593E787001CC5828012
:1007600008450D81058982801C4593E747001CC51B
:10077000828008450981058982801C4591C537071B
:100780005000D98F1CC582803707B0FF7D17F98FC5
:10079000D5BFA54763F7B7048D47138765FF3307B8
:1007A000F7020328C5009D47B397E70093C7F7FFFB
:1007B000B3F70701B396E600DD8E54C5994763E3AE
:1007C000C70495477D163306F6025859FD47B3977F
:1007D000C70093C7F7FFF98F3396C5005D8E50D9D8
:1007E00082800D473387E502032805019D47B397B3
:1007F000E70093C7F7FFB3F70701B396E600DD8E76
:1008000014C96DBFB14763E2C70295476516330649
:10081000F6021859FD47B397C70093C7F7FFF98F42
:100820003396C5005D8E10D9828095474D163306EC
:10083000F6025855FD47B397C70093C7F7FFF98FE6
:10084000B395C500DD8D4CD5828068454205418158
:10085000828008416D8D3335A00082805C4191C556
:1008600037070004D98F5CC18280370700FC7D17F1
:10087000F98FD5BFEFF2DF9701112A84230401001D
:10088000A5441C8463F8F40423040100A546214612
:100890001C8463FCF6062315010023040100954621
:1008A0001C8463FEF60C38853C8599460D46B3F7EB
:1008B000D702056513050580B3D7C7023357D702A2
:1008C000BA97C207C1837C853C8505611D8D4205B1
:1008D000418589B21C4493E787001CC422854935B1
:1008E00075FD1C4493E747001CC42285593575FDEE
:1008F00078441C8414108607B6972396E7FE1C8460
:10090000850793F7F70F5C84ADBFA30401009C84B7
:100910006378F6001C84850793F7F70F5C848DBF1E
:1009200098849C840C100607850786072E97AE973F
:100930000357C7FE83D7C7FE63FDE7029C84860783
:10094000AE9783D7C7FE7C859C84988485078607ED
:10095000AE9783D5C7FE931717001810BA97239642
:10096000B7FE9C8438850C1085078607AE972396C2
:10097000E7FE9C84850793F7F70FDC8449BF1C844E
:100980001010388589078607B29783D7C7FEBA97B4
:10099000C207C1837C851C84850793F7F70F5C84AD
:1009A00001B71C4141677917F98F1CC1232005004D
:1009B0002322050023240500B70702402326050053
:1009C000138787006317E500D8431367F700D8C380
:1009D00082801387C7016316E500D8431367070FAA
:1009E000FDB7138707036318E500D8438566938630
:1009F00006F0558FE9BF138747046315E500D84318
:100A0000BD66C5BF138787056316E500D843B706E3
:100A10000F00C5B71387C7066316E500D843B706AE
:100A2000F000C1BF138707086316E500D843B70677
:100A3000000FC1B7138787406319E50003A747403C
:100A40001367F70023A2E74082801387C74163172B
:100A5000E50003A747401367070FEDB793870743E8
:100A6000631BF500B707024003A7474085669386DE
:100A700006F0558FC1BFB70702401387474463167E
:100A8000E50003A74740BD66EDB7138787456317A9
:100A9000E50003A74740B7060F00E1BF1387C7462D
:100AA0006317E50003A74740B706F000D9B71387DF
:100AB00007486317E50003A74740B706000F55BF77
:100AC000138707496319E50003A7474D1367F7002C
:100AD00023AAE74C82801387074A6317E50003A720
:100AE000474D1367070FEDB71387074B6319E500F1
:100AF00003A7474D8566938606F0558FD1BF1387B0
:100B0000074CE319E5FC03A7474DBD66FDB71C4143
:100B100061773D0794517D8F9C45D58F9449D58F42
:100B2000D449D58F944DD58FD44DD58FD451D58FF1
:100B30009455D58FD98F1CC1DC455CC19C411CC527
:100B4000DC415CC582801C4189C593E717001CC14C
:100B5000828041677917F98FDDBF9317350063DA1B
:100B60000700B707024083A707407D8D3335A000FB
:100B700082809317250063D70700B707024083A739
:100B8000074DE5B7B70702409C43C5B7931735003B
:100B900063D70700B707024023A2A74082809317BC
:100BA000250063D70700B707024023AAA74C82801D
:100BB000B7070240C8C382809C4513F7070113F8AA
:100BC000F70001C7D8413368E8008E2113F7F50F0D
:100BD00039C318418146854E3D4F930F80029302E1
:100BE0008004214E3396DE00B3F8C500631116036E
:100BF0009398260033131F011343F3FF3377E30069
:100C0000B318180133E7E800639FF70550C985065C
:100C1000E39AC6FD18C11307F00F6375B70454417A
:100C20002146854E3D4F930F800293028004414E32
:100C3000B398CE0033F715016392E802131726002C
:100C400001173313EF001343F3FFB376D3003317C9
:100C5000E800D98E639DF701232A15010506E319E3
:100C6000C6FD54C18280E39457FA10C94DB7E3978B
:100C700057FE23281501DDB708456D8D3335A000DB
:100C800082800CC982804CC9828019C20CC98280C2
:100C90004CC98280B7070140635A0504DC4F935664
:100CA0000501131805013707300013F6F600135835
:100CB0000801B376E50063500506639BE6029306E0
:100CC00006010D46B316D60093C6F6FFF58F99C9F7
:100CD000135755011377F73F12073317E800D98FE1
:100CE00063570504370701405CCF8280DC4345BF72
:100CF0001317B500635607008D46B396C600E9B7D3
:100D0000135755011377F73F12073317E8001347BE
:100D1000F7FFF98F6DBF6390E6023706014054423A
:100D2000370700F17D17F98F758F58C2D5F1370756
:100D300001405CC382801317B500635C07008D46D9
:100D4000B396C60093C6F6FFFD8EB707000FD58F8A
:100D5000F1BF1357550112073317E8001347F7FF88
:100D60007D8FB707000FD98FD1B7EFF26FC87971B8
:100D70002A84462168082EC6BD24925737470F00A3
:100D80001307072433D7E702C204C18093F404FC9D
:100D9000C204C180B24561651305056A13160701D7
:100DA0004182D18C46A01620C206C182F99AC206A1
:100DB000C18216A094416369D5048606B3D7D702D1
:100DC0009146139707014183BA876373D700914710
:100DD00005064206C2074182C18312B05EAC1E20E6
:100DE000DA21B62593E717001EA01E20558FC207F3
:100DF000C18393F757BFD98F1EA09A25DE25D98FBF
:100E00001EA445616FF00FC1EA2131667D16631D96
:100E1000C5020D46B386C602B3D7D702C207C18347
:100E20009396470199E293E71700A166D58F930641
:100E3000C0123307D7029306803E3347D702050717
:100E4000420741831AB059BF6546B386C602B3D77D
:100E5000D7029166C207C183D58FD9B71E2189C534
:100E600093E717001EA18280C207C183F99BC207C6
:100E7000C183CDBF1E2189C593E707101EA18280C3
:100E8000C207C18393F7F7EFC207C183C5BF1E2115
:100E900089C593E707201EA18280C207C18393F70B
:100EA000F7DFC207C183C5BF1E2189C593E707408D
:100EB0001EA18280C207C18393F7F7BFC207C18317
:100EC000C5BF0EA982800A291375F50F828093F79A
:100ED000E50F19C293E71500C207C1831EA98280DE
:100EE0005E290A2D42055D8D6D8D220521810D8DB6
:100EF000133515008280411102C402C693D7C50183
:100F00002AC63EC4A247A205A18199CBB247D10708
:100F10003EC6B247884341016D8D3335A0008280C3
:100F2000B247C181E107EDB723AAA19082809387E0
:100F300041919443182181E63C21920721A89443D2
:100F40000546639FC6023C21103192076314D60008
:100F500093E707F8B7E600E093F7F70FBA96238018
:100F6000F6408546935757003397E6005441A5C293
:100F7000938707048A07B7E600E0B69798C3828094
:100F80008C4389466391D50214313C216365D600B8
:100F90008A06B6975DB79386E6038A06B69793F7F7
:100FA000F70F920775B790438D46631CD600143136
:100FB0003C216364D6008606E9BF9386C607860691
:100FC000F1BF94439147E39EF6F81C31BDB7938778
:100FD00007064DB7B7160240DC4251777D17F98FEF
:100FE0005D8DC8C28280371702405C439146B18B49
:100FF0006385D700A1466382D706B7177A00938727
:1010000007201CC1371602405C4237070020130737
:1010100007009183BD8BBA9794231C41B3D7D700A7
:101020005CC15442A1829D8ABA969422B3D6D7005D
:1010300014C55442AD829D8A36971823B3D7E70072
:101040005CC55842398393763700138741803697C1
:101050001823B3D7E7021CC982805C435843C1669A
:10106000C983758FB7F6FF1F83A6C670BD8B89072E
:101070001396160163480600C54601466392D702DF
:10108000C94739A88946638FD702BD46638ED70208
:10109000C146638ED702C54601466393D700C14758
:1010A0001DEF3747024003270780418B05C73717DD
:1010B0007A0013070720B307F7021CC121D61C4191
:1010C000858381B701466DBF0546B547D1BF01464F
:1010D000BD47F9B737173D0013070790E9BFB715AC
:1010E0000240D8559316F700D85563DF06041183E4
:1010F0003D8B9306170037177A00130707203357E5
:10110000D70218C1D455A182BD8A8DE29546330716
:10111000D702058318C137170240585714413D8B39
:10112000050733D7E60218C1184171B785456394A6
:10113000B600E546E9BFBD456396B600D1463387A4
:10114000E602C9BF8906E5BF3D8B93061700371736
:101150007A00130707203357D702F1B799C537171D
:1011600002405C4B5D8D48CB8280B7170240D84B64
:101170001345F5FF798DC8CB828099C5371702409A
:101180001C4F5D8D08CF8280B7170240984F1345E2
:10119000F5FF798D88CF828099C5371702405C4F63
:1011A0005D8D48CF8280B7170240D84F1345F5FFB9
:1011B000798DC8CF828099C5371702405C475D8D15
:1011C00048C78280B7170240D8471345F5FF798D8D
:1011D000C8C782801A218D6793870704B6217D8F47
:1011E0009E21D58FD621D58FF621D58F9625D58FE7
:1011F000B625D58FD625D58FF625D58FD98F1EA1AB
:101200005A2DFD779387F77FF98F5EAD9E291EA932
:1012100082801E2189C593E707041EA18280C20730
:10122000C18393F7F7FBC207C183C5BF5E2101C627
:10123000DD8D4EA1828093C5F5FFFD8DDDBF4EA5EE
:1012400082804A2582800A256D8D3335A0008280F8
:101250001E319206558EC207C183F99BC207C18316
:101260001EB11A2D1E31B736014042074183137754
:10127000C7F0518FC2074207138606C0C18341835E
:101280006300C50437060040630CC5021306064020
:101290006308C50237160040130806806302050381
:1012A000130606C0630EC50093860640630AD50088
:1012B000B7560140138606C06304C5006319D50004
:1012C000F59BCD8F93E717001AAD1EB18280D59B99
:1012D000CDBF1E312206B206C207C183BD9BC20725
:1012E000C1831EB18358850185671A319387F7CF73
:1012F000D18EB3F71701D58F13984500B73601404B
:1013000042074208C207138606C0418313580801EA
:10131000C1836300C50437060040630CC502130691
:1013200006406308C5023716004093080680630232
:101330001503130606C0630EC50093860640630AB4
:10134000D500B7560140138606C06304C500631B71
:10135000D5001377F7FD3367E800136707011EAD6B
:101360001AB182801377F7F54D8FC5BF1E2137372D
:101370000140930607C0C207C1836300D504B706C6
:101380000040630CD502938606406308D502B71669
:101390000040138606806302C502938606C0630E72
:1013A000D50013070740630AE5003757014093064D
:1013B00007C06304D5006316E500BA2193F7F7F878
:1013C000D98F37170040630CE50013070740630807
:1013D000E50093F7F7CFFA21C207C183D98F1EA189
:1013E000DE215EB59E211EB5B7370140138707C0C9
:1013F000630EE50093870740630AF500B757014085
:10140000138707C06304E5006314F5009C251EB92B
:1014100085475EA982801E31922103D82500C2072C
:10142000C183F99BC207C1831EB11E3156211A2DFB
:10143000C207C183420741831377C7F8518F9225B2
:10144000F59BC20633660601D18F3736014013087B
:1014500006C0C182630E050113060640630AC5007B
:1014600037560140130806C0630405016310C50226
:10147000B225DD9B03D8E500D18FD221ED9B93F6F9
:10148000F6CFD18FD22533660601D18E56A11AAD83
:10149000FA215AB91EB182801E3165771307F7CF42
:1014A000C207C183BD9BC207C1831EB11E31562135
:1014B00003D88500C20713960601162DC18393F742
:1014C000F7FD758F96214182A206558FB6214207FE
:1014D0004183B3E606019206D58FB7360140C207B5
:1014E000138806C0C183630E050193860640630A14
:1014F000D500B7560140138806C063040501631E7A
:10150000D502B62593F7F7F703D8C5009206D58F15
:10151000D621C207C183920693F7F7FBD58FFD76DC
:101520009386F63FF18EF225C207C183336606012A
:101530000A06D18E13960601418252A11AADFA21F4
:101540001ABD1EB182801E3103D88500C207C18337
:1015500093F7F7EFC207C1831EB11E3156215A2DF2
:10156000C207139606014207962141831377C7F8F5
:10157000558FB621C18393F7F7DFB3E60601A206C4
:10158000D58FB7360140C207138806C04182C18398
:10159000630E050193860640630AD500B7560140E5
:1015A000138806C063040501631FD502FD76938688
:1015B000F67FF58FB62503D8C500A206D58FD621B4
:1015C000C207C183A20693F7F7BFD58FF576FD1644
:1015D000F18EF225C207C183336606011206D18E51
:1015E00013960601418252A15AADFA215ABD1EB18D
:1015F00082801A31FD77FD17F98F1EB1035805025D
:1016000056215E2D65771396060196211307F7CFB5
:101610007D8FF977A206FD17558FB3F70701B62125
:1016200003D8850042074182B3E60601B206D58F92
:10163000B7360140C207138806C04183C183630ED9
:10164000050193860640630AD500B756014013880A
:1016500006C063040501631BD500F176FD16F18E0B
:10166000D2251A06D18E13960601418252A15AAD97
:10167000FA212310E5041EB18280FD575EA12310DC
:1016800005002313050023110500230405008280B3
:10169000854723100500231105005EA123130500D3
:1016A0002314050082801E2189C593E717001EA11F
:1016B0008280C207C183F99BC207C183CDBF835714
:1016C000450491C52167D98F2312F5048280C6078E
:1016D000C583DDBF5E2501C6DD8D4EA5828093C525
:1016E000F5FFFD8DDDBF035885001A2D1E31420820
:1016F00013580801C2074207C18392064183137839
:1017000088FF93F7D7FD558EB365B8001377C7CF21
:10171000D18F0EA513671710C207C1831AAD1EB172
:1017200082801E2189C593E707081EA18280C20717
:10173000C18393F7F7F7C207C183C5BF1E2DC20748
:10174000C183DD9BDD8D0EAD82801A2DFD779387E1
:10175000F77FF98FA205CD8FC207C1831EAD8280AE
:101760005E2DC207C183DD9BDD8D4EAD82805A2D7B
:10177000FD779387F77FF98FA205CD8FC207C183CD
:101780005EAD82804EB182801E2DC207C183CD9B8B
:10179000C207C1831EAD1E2DDD8D0EAD82801A2DB8
:1017A000FD779387F73FF98F1EAD1E2DA205DD8DC6
:1017B000C205C1810EAD82805E2DC207C183CD9B63
:1017C000C207C1835EAD5E2DDD8D4EAD82805A2D88
:1017D000FD779387F73FF98F5EAD5E2DA205DD8D16
:1017E000C205C1814EAD8280EFE29FA09A212A847A
:1017F000AE84BE21D221962501EBBE85913CEE2020
:10180000228559376FE01FA191456318B700BE8547
:10181000C934EE2022856137F5B72145EE206315E6
:10182000A70A1A309206139887004207418313775C
:10183000F7EF420741831AB04A2C1A30420842059A
:1018400041811375C5F0518D558DB7360140420762
:101850004205138606C04183135808014181630283
:10186000C40437060040630EC40213060640630A30
:10187000C40237160040930806806304140313065D
:1018800006C06300C40293860640630CD400B756BA
:101890000140938606C06306D400B7560140631D1D
:1018A000D4001377F7DF3367E800936707104AAC7B
:1018B0001EB022851137B9B7FD769386F65F758F16
:1018C000D98F93E70710E5B70A307D777D17698FC9
:1018D0001AB04A2C05671307F7CF698F0358040223
:1018E000131586001396C600498E518F9398C70032
:1018F000B73601404208C2084207138606C0135893
:10190000080193D8080141836302C40437060040EC
:10191000630EC40213060640630AC4023716004071
:10192000130506806304A402130606C06300C40204
:1019300093860640630CD400B7560140938606C0D8
:101940006306D400B75601406310D402F977FD173F
:101950003378F80033E808018567B367F8005AACBC
:101960001EB02285AD3579BDA1669386F6DF33784A
:10197000D800B3E707018566D58FD5B74A31828095
:101980001E294A25ED8F4205418189C76D8D33356A
:10199000A00082800145828093C5F5FFC205C18108
:1019A0000EA98280EFE2DF841629F577FD17F58F07
:1019B000F621DA257971D58F1EA95625FD779387F3
:1019C000379FF58FD6212A842EC6D58F9625D58FA1
:1019D000B625D58F5EA55E29C207C18393F7F7CFE1
:1019E000D98F5EA96808EFF00FE0B74701409387F1
:1019F0000780B245631AF404A25756246547B3879B
:101A0000E702C206C186984163D206040607522443
:101A10004206B3D7E702130740064186B3D6E70272
:101A2000B3F7E7029206635506028E0793872703F2
:101A3000B3D7E70213F77700B367D700C207C183B4
:101A40001EA445616FE00FFD925745BF0A07C1B75D
:101A5000920793872703B3D7E702BD8BD58FF9BFD2
:101A600091C55E250967D98F5EA582805A25F977D1
:101A7000FD17F98FD5BF13F7F50F85471583B3957C
:101A8000B7006319F7009307C500984301CED98DBD
:101A90008CC38280894693074501E318D7FE9307DC
:101AA0000501E5B793C5F5FFF98DDDB71E29C2071E
:101AB000C183C19BC207C1831EA91E29DD8D0EA94A
:101AC000828093F5F51F4EA182804A211375F51F80
:101AD00082800A216D8D3335A000828013F7F50FC7
:101AE00085461583B397B6006311D7025A25F98F3F
:101AF0001A2101454207418381CB0545A181B315D8
:101B0000B5006D8F3335E000828089466314D700BD
:101B10001A29F1BF5A29E1BFB707002083A7870E12
:101B200037177A0013070720B3D7E70293F7F70FA9
:101B3000238DF1901307803EB387E702239CF19039
:101B40008280B7F700E0D8438146799BD8C303D79A
:101B500081913306A70290CBD4CB9843136707013A
:101B600098C398431367170298C3D843058B75DF52
:101B70009843799B98C38280EFE28FE72A841165AE
:101B8000797185451105EFF04FDF93070020FC8246
:101B9000371501408D473ECC4C08E14713050580C1
:101BA0003ECEEFF06F8122D0374401400546B707A3
:101BB0000C0093055052130504803ED402D2231624
:101BC0000102553D930750037C86680085473EC857
:101BD00023070100EFF0AFB50C1013050480D933D3
:101BE000854513050480AD3D45616FE0AFE2EFE24E
:101BF0008FDEB7440140AE8932890144938404806A
:101C0000634524014A856FE04FE093050004268573
:101C1000C93565DDB38789008385070026850504FE
:101C2000C205C181793DE9BF138781801C43B7C6D6
:101C30000020938606A33E95636BD500B70601206E
:101C40009386068063E5A60008C33E858280FD5723
:101C5000EDBFEFE24FD80111EF00B01637140300CB
:101C60001145EF0010232A8B1545EF009022AA8A18
:101C70003145EF0010222A8A3545EF009021AA89CC
:101C80003945EF0010212A893D45EF009020AA84B4
:101C9000130540067D3513150B014185EF00102318
:101CA0002ACE13950A014185EF0050222ACC131544
:101CB0000A014185EF0090212ACA13950901418547
:101CC000EF00D0202AC8131509014185EF0010202C
:101CD0002AC6139504014185EF00501FB2474247C1
:101CE000D2466246F2452A8813050471EFB0721C91
:101CF00085BFEFE2EFCF0111EFA0E237EFA0623F27
:101D000085679387D70E3E9542054181914763E9E8
:101D1000A70EB71703009387C7750A053E951C41A8
:101D200082873715030013050579EFB0F21F3715C9
:101D300003001305857DEFB0321F0145EFA042413E
:101D4000371503001305057FEFB0121E1305401F62
:101D5000CD3BB724030013858480EFB0F21C754699
:101D60000A858145EFA06244372403008A85130564
:101D70000482EFB012141305401FE133372503002E
:101D800013058582EFB0521A371503007546814559
:101D900013050577EFA022553725030013050584A9
:101DA000EFB092181305401F693B13858480EFB094
:101DB000B21775460A858145EFA0223F8A85130533
:101DC0000482EFB0120F372503001305455BEFB017
:101DD000B21505616FE00FC4371503001305C5790F
:101DE000A9B7371503001305857A81B737150300A6
:101DF0001305457B1DBF371503001305057C35B75B
:101E0000371503001305057D0DB7EFE26FBEAA84F9
:101E10000144EF00D01B6345940001456FE08FBF84
:101E2000EF00701E0504C5BFEFE2EFBA4111AA89A9
:101E3000EF20A046B727030003A5878B3749004052
:101E4000EF10D0778144138481A8B72A03001309C7
:101E5000094063C63401014541016FE00FBBEF202B
:101E6000E02823AEA1902285EF20604D0844850430
:101E7000EFE052102AC60840EFE0D20F2AC44840D3
:101E8000EFE0520F3247A2462A869385CA8B4A85D5
:101E9000EF1060391305800C6D3165BFEFE2AFB311
:101EA0000111930700003ECA3ECC3ECE2A89EF20A6
:101EB000607EB727030003A5878B0144B729030081
:101EC000EF10D06FB7240300372A030063462401C4
:101ED000014505616FE06FB3EF204021AA8A7000D1
:101EE0009305A1002800EF202029130621010C08EA
:101EF0001305E100EF2040245685EFE0B20793156B
:101F00000501C18513854989EFB0A27A0316E10066
:101F10008315C1000315A10054080504EF10B07229
:101F2000EFE0F2242A86AE861385848AEFB06278C9
:101F3000031601018315C100031581003408EF1059
:101F40009070EFE0D2222A86AE861385848AEFB0A5
:101F50004276031621018315A10003158100740840
:101F6000EF10706EEFE0B2202A86AE8613050A8B62
:101F7000EFB0227413052003E93689BFEFE24FA7C3
:101F8000411185451305000402C202C402C6EFF0E8
:101F9000CF9E9307F00F7C8237250140C1473EC694
:101FA0004C008D47130505803EC4EFE0FFC04101A2
:101FB0006FE04FA6EFE2CFA32A84AE84C1378565D8
:101FC00051469385F52B13054006EF00F073372932
:101FD00001409305001013050980EFE09FCA130527
:101FE000098093050020EFE0DFC91305F4FF914756
:101FF00063EDA704B7270300938707940A053E956E
:102000001C418287EF00B052372401401305048041
:102010008545EFE01FC7130504808945EFE0BFC683
:102020000144634794023724014085451305048029
:10203000EFE07FC5894513050480EFE0DFC4372555
:10204000030013054595EFB0226E01456FE08F9CAC
:10205000EFA022411305401FED340504D9B7EF006E
:10206000F06137240140130504809145EFE0BFC1C2
:1020700013050480A145EFE0DFC00144634B9400E9
:1020800037240140914513050480EFE0DFBFA145EF
:102090005DB7EFA0E2401305401F65340504F9BFAA
:1020A000EF00B0353724014013050480C145EFE04F
:1020B0005FBD1305048093050002EFE0DFBC01441F
:1020C000634C940037240140C14513050480EFE0C0
:1020D0009FBB9305000285B7EFA0E2301305401FB8
:1020E000EFF03FA60504E9BFEF00D03A37240140E6
:1020F0001305048093050004EFE0FFB81305048086
:1021000093050008EFE0FFB70144634D94003724C6
:1021100001409305000413050480EFE0DFB693054A
:10212000000811BFEFA002301305401FEFF07FA1A0
:102130000504E1BF09659305F0051305F570372423
:102140000140EF00B018130504808545EFE0BFB3F0
:10215000130504808945EFE0DFB213050480914543
:10216000EFE03FB213050480A145EFE0DFB11305B6
:10217000048093050004EFE01FB11305048093056C
:102180000008EFE01FB013050480C145EFE0BFAFCA
:102190009305000213050480EFE0BFAEEF00104E80
:1021A000EF00B025EF00102FEF00703849BDEFE2CF
:1021B000AF81931716008D4AAA892E89328A3684F8
:1021C000B38AFA40814463E14409639D4407B38ABA
:1021D0002401338A3401420AC20A135A0A0193DAEB
:1021E0000A012286D6855285EF10004E33099940A8
:1021F0002286D68552854209EF10004D13590901F8
:10220000B38499402286CA855285C204EF10C04B20
:10221000C1802286CA852685EF10004B2286D6858E
:102220005285EF10604A2286D6852685EF10C04978
:102230002286CA855285EF1020492286CA852685C6
:10224000EF1080486FD0DFFB338C3401B30B2A01D1
:10225000420CC20B135C0C0193DB0B01DE85628523
:102260002286338B9940EF102046420B135B0B0103
:10227000DE85B30B49415A852286C20BEF10C0445C
:1022800093DB0B01DE8562852286EF10E043DE855D
:10229000330C3A01B38B24015A852286420CC20BBF
:1022A000EF10804293DB0B01135C0C01DE8522866C
:1022B0006285338B4941EF102041420BDE85135B71
:1022C0000B01B30B994022865A85C20BEF10C03F19
:1022D00093DB0B012286DE856285EF10E03E2286CD
:1022E000DE855A85EF10403E63DA0A00939724009A
:1022F000BE9A990A8504C204C180F1B5B3874441EE
:102300008A077D1ABE9A420AA90A135A0A01DDB742
:10231000EFD21FEBB729030041112A8A2E8BB28A14
:10232000368DAA849389099A130C0008A14C1C23AA
:1023300093968701E18681E741016FD03FECE3CCC2
:1023400006FEB546930D0B016399D700139B0D0153
:10235000135B0B01D2840507D9BF939607011306BF
:102360000002C18201446376F600138406FE420433
:1023700041801204C20D4E9493DD0D015A89814BA8
:10238000142033567C41F18E8DCA3AC633857401D0
:1023900056864205CA854181EF1000333247850BCE
:1023A000E3909BFF05094209135909010504E398CD
:1023B0002DFDA104C204C18079BFE382AAFF3AC601
:1023C000338574016A86F1B7EFD2FFE001112AC6A6
:1023D000EF00707F324591477D1563ECA700B7276A
:1023E00003009387C7980A053E951C418287EF102A
:1023F000E034014505616FD05FE1EF10A032D5BF39
:10240000416413050480EF10602E1305401FEFF0A8
:102410004FF31305007EEF10602D1305401FEFF002
:102420004FF27D45EF10802C1305401FEFF06FF148
:102430001305F4FFEF10802B1305401FEFF06FF032
:102440000145EF10A02A1305401FEFF08FEF130591
:1024500004FEEF10A0291305401FEFF08FEE3D653D
:102460001305D5F7EF1080281305401FEFF06FED2F
:10247000216513050541EF1060271305401FEFF09C
:102480004FEC116513058520EF1040269DB7416480
:102490001305F4FFEF108025930604805146930541
:1024A0002003130520032133A9B7C1641385F4FF6A
:1024B000EF10C0239389F4FF231E010013040003CF
:1024C000938404801309B0051374F40F4E85230E12
:1024D0008100EF10A02178089306007E26869305E0
:1024E0008003130580032D351305401F0504EFF00D
:1024F0004FE59377F40F139487016184E39627FDEA
:10250000CDBDEFD25FCDB7440040374901402A8AA4
:102510000144EF00303293840440854A1309098056
:10252000930500022685EFF0CFDAE31B55FF2685E1
:10253000EFF0AFD9AA85AA8905042685EFF06FD8F8
:1025400042044180CE854A85EFF0AFD7E31A44FDBF
:1025500037250300130505FEEFB0021D01456FD0BE
:10256000DFCAEFD25FC7B7240040374901402A8A4B
:102570000144EF00504193840480854A1309098087
:10258000930500022685EFF0CFD4E31B55FF268587
:10259000EFF0AFD3AA85AA8905042685EFF06FD2A4
:1025A00042044180CE854A85EFF0AFD1E31A44FD65
:1025B00037250300130505FEEFB0021701456FD064
:1025C000DFC4EFD2FFC2797113060002814508080B
:1025D000EFD01FC58545414502C202C402C6EFE0E7
:1025E000DFB985451145EFE05FB98545130500204A
:1025F000EFE0BFB83165EFE0FF9D9307C0034C00EB
:10260000371501407C8202C6EFE00FDB3715014031
:10261000930700034C0013050580372401407C829A
:1026200002C6EFE06FD913050440EFE02F88B7072B
:102630000E003ECE0C088547130504402302F1022C
:1026400002C802CA02CC02D0EFE08F8A854513058A
:102650000440EFE04F8F814513050440EFE00FA0E9
:1026600013050440EFE02F8F930404402685EFE02C
:102670002F8F6DFD1305044037240140EFE0CF8E0E
:10268000130404402285EFE0CF8E6DFD45616FD0CD
:102690007FB8EFD2FFB537240140AA859D46054695
:1026A00013050440EFE0EF8E854513050440EFE08D
:1026B000CF8C9304044089452685EFE08F9965DD32
:1026C00013050440EFE06F986FD0DFB4EFD25FB234
:1026D0002A843725014013050540EFE0AF99B30781
:1026E000A400014563CE070085661387F6FF3A858F
:1026F00063D8D70022856305E40013950701418163
:102700006FD05FB193070000232005005CC1230454
:1027100005008280EFD2DFAD0111AA842E84370537
:102720004000854502C202C402C602C802CA02CCE9
:1027300002CEEFE07FA685452145EFE01FA4856727
:10274000938707C07C8237150140F1473EC64C0095
:102750008D47130505C03EC4EFE00FC6B707FFBFA6
:102760003ECAE0849307004037640040FC850C08B3
:10277000916713050480FC8626C8EFE00FDF130580
:1027800004808545EFE08FED854513050480EFE07B
:10279000AFF113052003EFF0CFBA05616FD09FA70B
:1027A000EFD21FA54111854513051002EFE0FF9CF4
:1027B000ED47371501407C824C00930780041305D8
:1027C00005403EC6EFE04FBF41016FD0BFA4EFD23E
:1027D0003FA2411185451305000202C202C402C690
:1027E000EFE0BF99930700507C8237150140C14745
:1027F0003EC64C008D47130505403EC4EFE0CFBBFD
:1028000041016FD03FA1EFD2BF9E1305401F371487
:102810000140EFF00FB31305044093050010EFE003
:102820004FC69305004013050440EFE08FC5130524
:10283000401FEFF00FB11305044093050010EFE0C7
:102840008FC49305004013050440EFE0CFC36FD061
:102850007F9CEFD2FF9901118545214502C002C23C
:1028600002C402C602C802CA02CC231E0100EFE065
:10287000DF9085451165EFE03F9237140140856791
:102880008D447C808A85C147130504C03EC426C29E
:10289000EFE08FB2130504C08565EFE08FBE896756
:1028A00061498A85130504C07C804AC426C2EFE0D2
:1028B000AFB091677C808A859147130504C03EC400
:1028C000EFE08FAFE1778A85130504C07C804AC4AE
:1028D00026C2EFE06FAEB70704013EC6B70702009D
:1028E0003EC8B70700028507374400403ECAA147EB
:1028F0003ECC6C009D4713050480FC86EFE09F8D65
:10290000854513050480EFE0DF9005616FD09F904F
:10291000EFD27F8CB74400402A891304900C93892E
:10292000048089454E85EFE01F9205C9CA8513854D
:102930000480B7440040EFE09F901304900C13898B
:10294000048085454A85EFE01F9019CD13850480EA
:10295000EFE03F8F1375F50F31A07D141374F40F62
:1029600069F001456FD07F8A7D141374F40F71F8FC
:10297000CDBFEFD2FF872380A19237050240130518
:10298000C54185475CC1854537040010EFE0AF9B2A
:10299000930404022685EFE04F9C6DDD370502406D
:1029A00081451305C541EFE00F9A13050402EFE0DE
:1029B000EF9D01456FD01F86EFD29F8339712A8426
:1029C0002E89B28481451306C002480836C6EFD06E
:1029D0003F8585450945EFE06FF82285EFD07FFC04
:1029E000B246C1473ECE930700084C083ED422852C
:1029F0008D6736D03EDC4ACA26CC02D202D602D837
:102A000002DA02DEEFE0AF90370500101305050291
:102A1000EFE0CF9721616FD0EFFFEFD2CFFB011135
:102A200085451305C002EFE04FF585452165EFE0D0
:102A3000AFF637140140E1770D49C1498A85130586
:102A400004807C804EC44AC2EFE00F9713050480D7
:102A5000A165EFE00FA3930780027C808A85E147A0
:102A6000130504C03EC44AC2EFE00F95B7440040CE
:102A7000B70704013EC66C00B7070002138504C007
:102A80003ECA02C802CCEFE0EFF4138504C08545CE
:102A9000EFE02FF8138504C005468945EFE00FF9F4
:102AA000370502408546138601929385C4C01305FD
:102AB000C541193795678A85130504407C804EC44B
:102AC0004AC2EFE06F8F05616FD02FF4EFD24FF263
:102AD00001112E84AA8485450545EFE0EFEB4C08F3
:102AE00037050040E484E082231D0100231B010020
:102AF000EFE0DF870546854537050040EFE09FBDE5
:102B00009307C0027C86680085473EC82307010002
:102B1000EFE0EFC1854537050040EFE0DFB8056124
:102B20006FD04FEF411185453705004022C626C4BE
:102B30004AC2EFE0FFE45DC5B707004013840740D9
:102B400083D70740138741A99183858B22851CA7D2
:102B5000EFE0DFE24205418523AAA1A88145228555
:102B6000EFE05FC237140040835704809304048071
:102B70009183138701AA858B26851CA7EFE01FE0B0
:102B800042054185814523A0A1AA2685EFE09FBF8C
:102B9000835704C0930404C091831387C1AA858B13
:102BA00026851CA7EFE09FDD4205418523A6A1AA4B
:102BB00081452685EFE01FBDB737014013840740EC
:102BC00083D70740138781AB9183858B22851CA710
:102BD000EFE0DFDA4205418523ACA1AA81452285D9
:102BE000EFE05FBA854537050040EFE0FFDA324499
:102BF000A2441249410173002030EFD26FDF797196
:102C000085450945EFE04FD985451145EFE0EFD601
:102C10009307000C371501404C102312F1021305E5
:102C20000580930780043ED6EFD01FF96800EFE0DF
:102C3000DFA437040040C167F9176C001305044096
:102C40003EC802C6230A0100EFE04FF2814601466A
:102C5000130504408D45EFE01FA991473ECC854701
:102C60003ECE2C08A947130504402310F102EFE0E3
:102C7000BFB7130504408145EFE0DFB0854513057C
:102C80000440EFE05FA2138541A9EFF0BFA74561C3
:102C90006FD04FD8EFD2CFD5797185451145EFE090
:102CA000AFCF85452145EFE04FCD9307000C371599
:102CB00001404C102312F102130505C09307800454
:102CC0003ED6EFD07FEF6800EFE03F9B3714004027
:102CD000C167F9176C00130504803EC802C6230AB9
:102CE0000100EFE0AFE881460146130504808D4501
:102CF000EFE07F9F91473ECC85473ECE2C08A94709
:102D0000130504802310F102EFE01FAE13050480C9
:102D10008145EFE03FA7854513050480EFE0BF98AC
:102D2000138501AAEFF01F9E45616FD0AFCEEFD2A1
:102D30002FCC797185452145EFE00FC685451145BA
:102D4000EFE0AFC38D47371501404C102312F1025D
:102D500013050580930780043ED6EFD0FFE5680099
:102D6000EFE0BF9137140040C167F9176C001305FD
:102D700004C03EC802C6230A0100EFE02FDF8146EF
:102D80000146130504C08D45EFE0FF9591473ECC09
:102D900085473ECE2C08A947130504C02310F10235
:102DA000EFE09FA4130504C08145EFE0BF9D85457A
:102DB000130504C0EFE03F8F1385C1AAEFF09F9485
:102DC00045616FD02FC5EFD2AFC201112E84AA8406
:102DD00085454145EFE04FBC4C0837150040E48481
:102DE000E082231D0100231B0100EFE02FD80546E0
:102DF000854537150040EFE0FF8D930760047C8622
:102E0000680085473EC823070100EFE04F928545E3
:102E100037150040EFE03F8905616FD0AFBFEFD2BB
:102E20002FBD0111AA842E84130500028545EFE011
:102E3000AFB6E082371400404C0813050440E48428
:102E4000231D0100231B0100EFE04FD205468545FD
:102E500013050440EFE01F88930770047C86680028
:102E600085473EC823070100EFE06F8C85451305B9
:102E70000440EFE05F8305616FD0CFB9EFD24FB769
:102E8000797185450965EFE04FAF85454145EFE034
:102E9000CFAE9307000C4C102312F10237150140FE
:102EA000930780043ED6EFD03FD16800EFE0EFFCFF
:102EB00037340140C167F9176C00130504403EC860
:102EC00002C6230A0100EFE06FCA814601468D4524
:102ED00013050440EFE03F812808EFE06FFBA947AE
:102EE0002C08130504402310F102EFE0FF8F1305B7
:102EF00004408145EFE01F89854513050440EFE05C
:102F00008FFA45616FD00FB1EFD28FAE2A893705A6
:102F100008003971AE8413050502854532C602D218
:102F200002D402D602D802DA02DC02DE02CC02CEE1
:102F300023100102EFE06FA4854513050004EFE0C4
:102F4000CFA385450545EFE04FA3370513808545A1
:102F50004105EFD03FD49307F03F372501402312BE
:102F6000F1020D44C1474C10130505803ED622D412
:102F7000EFD09FC4ED77938707A037150140231248
:102F8000F1024C10E147130505403ED622D43754D8
:102F90000140EFD07FC22C08130504C0231E21017D
:102FA000E484231F0100231D0100EFE02FBC324603
:102FB000C167938707070C18130504C03ED8231B6D
:102FC000C102231C0102EFE00FC50C18130504C059
:102FD000EFE08FCC0C18130504C0EFE0CFD60C182F
:102FE000130504C0EFE0EFE0130504C08545EFE0F2
:102FF0000FED130504C08145EFE04FF4130504C045
:103000008145EFE08FF4130504C08145EFE04FF5F3
:10301000130504C08145EFE08FF5130504C0854515
:10302000EFE02FF08545130504C0EFE0CFE7216105
:103030006FD04F9EEFD2CF9B7971130600409385DE
:1030400041AD138541AC02CA02CC02CE02D002D2FD
:1030500002D402D602C602C8EF9062486318050C7B
:103060003725030013050501EFA0026C85453705E0
:103070000200EFE06F92854513050002EFE0EF8F4D
:1030800085450545EFE06F8F85452145EFD09FC011
:1030900093070002FC82371401408D473ECC4C0858
:1030A000E147130504403ECEEFD01FB19307000463
:1030B000FC824C089147130504403ECEEFD0DFAFB1
:1030C000896737440040938707583ED00C10B707F4
:1030D0000C00130504403ED402D223160102EFE097
:1030E0007F8C13050440054693055052EFE0BF98CE
:1030F00005469305404213050440EFE0DF97930730
:1031000060137C8685475C87680085473EC8EFD0A2
:103110001FE2130504408545EFE09F9485451305A4
:103120000440EFE0BF9845616FD0CF8E3725030094
:103130001305C50115BF411122C637440040930550
:10314000505213050440EFE07F9919CD1305044058
:10315000EFE0BF979375F50F138541ACEF90623B9D
:10316000324441017300203093054042130504406E
:10317000EFE0DF9675D50357044083574440054779
:10318000A380E192F1BFEFD2AF860111854513050F
:10319000000402C202C402C602C802CA02CC02CEA5
:1031A000EFD09FFF85454145EFD03FFD85477C82AD
:1031B0008D473EC44C00E147371501403EC6EFD075
:1031C000BF9F89477C824C009147371501403EC61E
:1031D000EFD09F9E896737240040938707583EC8E9
:1031E0000C08B7070C00130504803ECC02CA231E4E
:1031F0000100EFE02FFB854513050480EFE05F86BB
:1032000005616FD02F81930710101EA123240500A4
:1032100023260500232C0500232E05002328050066
:10322000232A050082804D7123202113232CC112F3
:103230002A89232ED1122E86341A930500100808ED
:10324000232611122324811223229112232E3111BD
:103250002320E1142322F114232401152326111520
:1032600036C6EFD07267635BA0029307F00F2A8423
:1032700063D4A7001304F00F81441C08A69783C9E8
:103280000700930500084A85EFE0BF847DD9CE850D
:103290004A858504EFE0FF82E31194FE8320C1128A
:1032A0000324811283244112032901128329C111AD
:1032B00071618280EFC2DFF34111EFF00FF68545B7
:1032C00013050004EFD07FEB930700403724014043
:1032D0007C82C1473EC64C008D47130504803EC426
:1032E000EFD09F8D9305004013050480EFD07F99A8
:1032F00041016FC03FF2EFC2BFEF37140140AA8413
:10330000A16513050480EFD01F9891651305044053
:10331000EFD07F972685EFF0CFE5A16513050480F8
:10332000EFD03F966FC01FEFEFC29FEC3714014004
:10333000AA84A16513050480EFD0FF94916513055D
:103340000440EFD01F942685EFF0AFE2A16513058E
:103350000480EFD01F936FC0FFEBEFC27FE93714FB
:103360000140AA84A16513050480EFD0DF91916527
:1033700013050440EFD0FF9013D58400EFF06FDF0A
:1033800013F5F40FEFF0EFDEA16513050480EFD025
:103390005F8F6FC03FE8EFC2BFE53714014085651E
:1033A00013050440EFD03F8E13054006EFE06FF9A0
:1033B000856513050440EFD0DF8C13052003EFE093
:1033C0004FF86FC03FE5EFC2BFE2EFF0BFEEEFF0A6
:1033D0009FFC4545EFF03FF213058007EFE06FF6E5
:1033E0001305100BEFF03FF10545EFF0FFF3130568
:1033F000C002EFF07FF31305D002EFF0FFF21305E8
:10340000200BEFF05FEF0545EFF01FF21305C00250
:10341000EFF09FF11305D002EFF01FF11305300B11
:10342000EFF07FED0545EFF03FF01305C002EFF040
:10343000BFEF1305D002EFF03FEF0545EFF0DFEEF1
:103440001305C002EFF05FEE1305D002EFF0DFEDE1
:103450001305400BEFF03FEA1D45EFF0FFEC1305BD
:10346000000CEFF05FE91305200AEFF0FFEB0945D0
:10347000EFF09FEB13054008EFF01FEB1305100C66
:10348000EFF07FE71305500CEFF01FEA1305200C57
:10349000EFF07FE62945EFF03FE90145EFF0DFE887
:1034A0001305300CEFF03FE51305A008EFF0DFE760
:1034B0001305A002EFF05FE71305400CEFF0BFE348
:1034C0001305A008EFF05FE61305E00EEFF0DFE56F
:1034D0001305500CEFF03FE23945EFF0FFE4130520
:1034E0006003EFF05FE11305800CEFF0FFE31305DD
:1034F000000EEFF05FE03D45EFF01FE36945EFF0B0
:10350000BFE23D45EFF05FE26145EFF0FFE11305FB
:10351000F002EFF07FE113058002EFF0FFE013050A
:103520000002EFF07FE013052002EFF0FFDF7D45A2
:10353000EFF09FDF6D45EFF03FDF13053002EFF056
:10354000BFDE13057003EFF03FDE0145EFF0DFDD76
:103550001D45EFF07FDD0945EFF01FDD4145EFF040
:10356000BFDC1305100EEFF01FD93D45EFF0DFDB98
:103570006D45EFF07FDB3D45EFF01FDB5D45EFF084
:10358000BFDA13053003EFF03FDA1305C002EFF0A6
:10359000BFD913059002EFF03FD91305E002EFF019
:1035A000BFD813050003EFF03FD813050003EFF079
:1035B000BFD713059003EFF03FD71305F003EFF0EB
:1035C000BFD60145EFF05FD61D45EFF0FFD50D45A5
:1035D000EFF09FD54145EFF03FD51305A002EFF086
:1035E0009FD10145EFF05FD40145EFF0FFD30145D6
:1035F000EFF09FD31305F007EFF01FD31305B002D0
:10360000EFF07FCF0145EFF03FD20145EFF0DFD182
:103610000145EFF07FD11305F009EFF0FFD013055E
:10362000000FEFF05FCD0545EFF01FD01305600FE1
:10363000EFF07FCC0145EFF03FCF1305A003EFF093
:103640009FCB1545EFF05FCE13059002EFF0BFCA98
:103650006FC05FBCEFC2DFB941112A841305A0021D
:1036600036C22EC632C4EFF01FC90145EFF0DFCBE2
:10367000130524001375F50FEFF01FCB0145EFF094
:10368000BFCA224609061375F60FEFF0FFC91305EE
:10369000B002EFF05FC60145EFF01FC9B2458D05DE
:1036A00013F5F50FEFF05FC80145EFF0FFC7924645
:1036B0008D0613F5F60FEFF03FC71305C002EFF0CC
:1036C0009FC341016FC01FB5EFC29FB23284938682
:1036D000150013061500C2064206C1824182EFF0B2
:1036E0007FF72285EFF07FC76FC0DFB2EFC25FB018
:1036F0009306F0071306F00781452A890145EFF08C
:103700007FF51305C002EFF01FBF930400081304F8
:1037100000084A857D14EFF05FC465FCFD14E5F8F0
:103720006FC05FAFEFC2DFAC3725014093050040AB
:1037300013050580EFD0EFD46FC0DFADEFC25FABF4
:10374000372501409305004013050580EFD0AFD326
:103750006FC05FACEFC2DFA9938701F39833AA84EF
:103760001DE78C4FD04F138481ED138581EDEF80E1
:10377000E25B18445C4410405440B72503003745D1
:1037800000409385850413050540EFF0DFA9B736A7
:103790000000014793864675954501462685E12838
:1037A0006FC05FA7EFC23FA3138401F3938481ED41
:1037B0004C48AA89B0480848F4480111EFA0027BA0
:1037C0001C2008C84CC8B9EB1306040193058401FA
:1037D000138581EDEF80B20618485C4803A8040207
:1037E0003ACC3ECE184C5C4C83A844023AC83ECA40
:1037F0009858DC5890403AC43EC69854DC54D440A3
:103800003AC03EC29844DC44B72503003745004027
:103810009385450213050540EFF0FFA0B736000081
:1038200001479386467A954501464E85A920056154
:103830006FC0BF9DEFC2DF9BB73600000147938684
:103840004675930520030146138581F62D20B73672
:10385000000001479386467A9305200301461385AD
:1038600001F511286FC01F9B09C523A2A192014534
:1038700082807D55828049C1EFC2FF952A847D55A3
:10388000A5C603A841926301080603A58192938807
:103890008192BE84138B819211C56319A4041C40CC
:1038A00023A0F800BA8A368AB2892E890298330892
:1038B00025013335A800CE9503270B002E95232430
:1038C000040148C423284401232A54019387819288
:1038D00009CB544763EFA6006395A600144763EA3B
:1038E000060118C080C301456FC03F92AA880841F5
:1038F00065B7BA871843E9BF7D55828083A7419297
:103900007D55A9CBEFC2DF8E82972A842E8903A52D
:10391000819281461387819205C950451C45636693
:10392000C900631926016377F40091C208C3338587
:10393000874039A810491C41854609C64C491CC31B
:103940000296F1B73E85C9BF99C223200700014501
:103950006FC05F8C8280EFC2BF893764375F935737
:1039600015401304F49D1D8CB727030083A547055C
:10397000EFC0627EA285EFC0027EA285EFC0A27D6D
:10398000B7270300AA8503A58705EFC01226A285E5
:10399000EFC0627C6FC01F88EFC29F8241112A8BEB
:1039A000AE8A368593050000328AB68CBA8B3E8C7F
:1039B000EFC0426C93898193138401949384C180F6
:1039C0001389C19311ED930500005E85EFC0826AF3
:1039D00001E9930500006285EFC0C2696306052016
:1039E000E6856685EFC022772A8DDE855E85EFC08D
:1039F0008276AA856A85EFC022062A8DE2856285D5
:103A0000EFC06275AA856A85EFC00205EFF0BFF4CA
:103A10002A8DAA856685EFC00274AA8CEA855E8528
:103A2000EFC06273AA8BEA856285EFC0C272AA8D6D
:103A300003A509000C4003AD0400832709003EC222
:103A4000EFC0627192472A8C6A85BE85EFC0A27072
:103A5000AA856285EFC072192A8C884083A5090067
:103A60008327090018403EC43AC2EFC0C26EA24785
:103A700012472A8D3E85BA85EFC0E26DAA856A8518
:103A8000EFB0927D2A8D88408C40184014403AC691
:103A900036C4EFC0426CB727030083A54705EFC0CB
:103AA000D214A24632472AC2B6853A85EFC0A26A2E
:103AB0009247AA853E85EFB0327AAA852AC45E85F0
:103AC000EFC06269EA852AC26E85EFC0C2681247FC
:103AD000AA853A85EFC07211E2852AC26E85EFC0D1
:103AE0008267A247AA8D6685BE85EFC0C266AA8599
:103AF0006E85EFC0920FEA85AA8D6685EFC0A2653C
:103B0000AA8CE2855E85EFC00265AA856685EFC056
:103B1000D20D138C41942AC403250C009305000098
:103B2000EFC0025B938CC192938B0193138D4193F1
:103B3000635DA02603250C00924503A70C003AC63E
:103B4000EFC062613247BA85EFB0127123A0AC00BA
:103B500003250C0003A70B00EE853AC6EFC0A25F59
:103B60003247BA85EFB0526F23A0AB0003250C009B
:103B7000A245032C0D00EFC0025EE285EFB0D26DCE
:103B80002320AD0083A50C005A85EFB0F26C83A50D
:103B90000B002A8B5685EFB0326C83250D00AA8A64
:103BA0005285EFB0726B2A8A938B018103A50B00BB
:103BB0009245EFC0425AAA855A85EFB0F2692A8B26
:103BC00003A50B00EE85EFC00259AA855685EFB01C
:103BD000B268A245AA8A03A50B00EFC0C257AA8506
:103BE0005285EFB072672A8AB72B030083A54B0575
:103BF0005A85EFC0425683A54B052A8B5685EFC0E8
:103C0000825583A54B05AA8A5285EFC0C25483AC66
:103C1000040003AC0900832B09001C402A8A3705E5
:103C20000080DA85334585013EC2EFC0C252AA8DBD
:103C3000DE855685EFC02252AA856E85EFC0E27AF6
:103C40009247AA8DD2853E85EFC0E25003AD0400B5
:103C5000AA856E85EFC06279EA85EFB0F25F88C011
:103C60001C40E6855A853EC2EFC0E24EAA8DDE8535
:103C70005285EFC0424EAA856E85EFB0F25D924745
:103C8000AA8DD6853E85EFC0024D03AD0900AA85F9
:103C90006E85EFC08275EA85EFB0125C23A0A900A3
:103CA0001C40E68556853EC2EFC0E24AAA8DE285F9
:103CB0005285EFC0424AAA856E85EFC00273032D7C
:103CC00009009247AA8DDA853E85EFC0C248AA85D1
:103CD0006E85EFB07258EA85EFB012582320A90024
:103CE000E6855285EFC022472A8AE2855685EFC0D5
:103CF0008246AA855285EFB032562A8ADE855A85D9
:103D0000032D0400EFC02245AA855285EFC0E26D65
:103D1000EA85EFB0725408C088408C4083AC09003B
:103D200003AD0900EFC022432A8AEA856685832B0A
:103D30000900EFC04242032C0900AA855285EFB06A
:103D4000B2512A8AE2855E85EFC0E240832A0400F0
:103D5000032B0400AA855285EFB012502A8ADA8517
:103D60005685EFC0423FAA855285EFB0F24EEFF084
:103D70009FBE2A8A8840D285EFC0E23D88C003A555
:103D80000900D285EFC0223D23A0A9000325090028
:103D9000D285EFC0423C2320A9000840D285EFC065
:103DA000823B08C041016FC06FC59307000023A08C
:103DB000FC0023A0FB002320FD00FDB3EFC24FC396
:103DC000B727030083A5070737240300EFB0727FEE
:103DD00023AAA180EFC0B239032684088326C40831
:103DE000EFA0C2182A86AE86032584088325C4085E
:103DF000EFA0D20AEFC0924223ACA1806D455121C1
:103E00000D810D8909479387C1816304E5020D4740
:103E10006306E50205476309E5003727030003272A
:103E2000470798C36FC00FBF3727030003278707D3
:103E3000CDBF372703000327C707E5B737270300A0
:103E400003270708F9BFEFC20FB941112A8A3305CA
:103E5000C040368483A48181AE8AEFC0D21783A587
:103E6000C181EFB0127683A54181EFC0C22E0C4014
:103E7000EFB0923EA685EFC0022EEFC0522F2A89E6
:103E80005685AE89EFB032362AC452852EC6EFB0C1
:103E900092352246B246EF80A276B727030003A6EA
:103EA000070683A64706EFA0F270B727030003A614
:103EB000870683A6C706EFA0627EB72703002A8A7B
:103EC00003A5C705AE8AA685EFC02252EFC0322AED
:103ED0002A86AE865285D685EFA0D26D4A86CE86DA
:103EE000EFA0C208EFC0923308C041016FC0EFB12C
:103EF000EFC26FAEB76400402A8A2E84328993895C
:103F00000480B70502004E85EFC0FFFE7DF91385E2
:103F100004808545B7040300B7690040EFC09FF5F2
:103F20008504938A0980A6855685EFC07FFB65DDF1
:103F30001385098001469305000DB7040700B76992
:103F40000040EFC0DFF893842408938A0980A68597
:103F50005685EFC0FFF865DDD28513850980B7046B
:103F60000700B7690040EFC0DFF593844408138A67
:103F70000980A6855285EFC0BFF665DD13850980EF
:103F80008545B7040300B7690040EFC0BFEE850464
:103F9000138A0980A6855285EFC09FF465DD1385DD
:103FA000098005469305000DB7090300B76400407A
:103FB000EFC0FFF1890993840480CE852685EFC088
:103FC0003FF265DDB7640040B7090300130AF00F44
:103FD00093840480938909047D141374F40F63108F
:103FE000440337640040130504808545EFC03FEA71
:103FF000854513050480EFC03FEB6FC00FA109E4B6
:1040000081452685EFC05FEACE852685EFC05FED4E
:1040100065DD2685EFC03FEB2300A90005096DBFD4
:10402000EFC26F9BB76400402A8A2E89328493893D
:104030000480B70502004E85EFC0FFEB7DF91385C4
:1040400004808545B7040300B7690040EFC09FE2D4
:104050008504938A0980A6855685EFC07FE865DDD3
:104060001385098001469305000DB7040700B76961
:104070000040EFC0DFE593842408938A0980A68579
:104080005685EFC0FFE565DD13850980D285B70948
:104090000700B7640040EFC0DFE2938949089384CA
:1040A0000480CE852685EFC0BFE365DDB7640040A0
:1040B000B709070022999384048093894908631BF8
:1040C000890037650040854513050580EFC03FDC5A
:1040D0006FC0AF9305048345F4FF2685EFC07FDEF4
:1040E000CE852685EFC0DFDF65DDD1BFEFC24F9003
:1040F00041117000894513051004EFF07FDF088639
:104100009C8622055D8D42054185EFB0D20DB72713
:10411000030003A6070983A64709EFA02258B72783
:10412000030003A6870983A6C709EF903264EFC096
:10413000F20E41016FC00F8EEFC28F8B411132849E
:104140002A89AE843000994513053004EFF05FDA18
:104150001C8498840145A207D98F2310F9001C857F
:104160009885A207D98F9EA01C869886A207D98F12
:104170001EA041016FC00F8AEFC28F8741113284A8
:104180002A89AE84300099451305B003EFF05FD65D
:104190001C8498840145A207D98F2310F9001C853F
:1041A0009885A207D98F9EA01C869886A207D98FD2
:1041B0001EA041016FC00F86EFC28F834111CC87D3
:1041C0001306F1008545EFF0BFE541016FC08F8414
:1041D000EFC20F829315350093F5850F6D45EFF013
:1041E000BFFD6FC02F83EFC2AF809315350093F5ED
:1041F000850F7145EFF05FFC6FC0CF81EFB25FFFBD
:104200009307B00B854563E5A70293071006894520
:1042100063E0A702930790028D4563EBA700CD47AB
:10422000914563E7A700A547954563E3A700994536
:104230006945EFF07FF86FB0FFFDEFB27FFB1147EC
:1042400091476363E500AA873E8513170501418303
:104250009307803E63F4E7001305803E13140501C5
:1042600041809305803EB3C585026545FD1593F5F4
:10427000F50FEFF07FF413551400EFF03FF86FB037
:104280007FF9EFB2FFF641111306F1008545EFF01B
:104290003FC6888741016FB0FFF7EFB27FF5372542
:1042A00006008145130505A8EFE0CFC69305000879
:1042B0001305B006EFF05FF013054006EFD07F88DE
:1042C00081451305B006EFF03FEF0D45EFF05FF0CD
:1042D0000145EFF05FF113052003EFF01FF6814574
:1042E00013058003EFF05FED81451305A006EFF0A5
:1042F000BFEC814513053002EFF01FEC9305000879
:1043000013057003EFF05FEB13055007EFF07FF735
:104310001307000D85476311E50285451305B006B7
:10432000EFF09FE981451305C006EFF0FFE81305A4
:104330002003EFF09FF081473E856FB0BFEDEFB2F5
:104340003FE879712A8A3010930561024810EFF036
:10435000BFE21306E1026C101305A102EFF0DFDDEE
:104360000315810237240300EFB0E2670326840AB5
:104370008326C40AEFA01224EFC0426A2ACE031596
:104380006102B72C0300EFB002660326840A83267D
:10439000C40A372B0300EFA0F221EFC022682ACC19
:1043A00003154102EFB022640326840A8326C40A5F
:1043B0001164EFA03220EFC062662ACA0315E10241
:1043C00033458502EFC022412AC80315C102334597
:1043D0008502EFC042402AC40315A102334585027D
:1043E000EFC0623F6247D2464246F247A245EFF035
:1043F000AFDA03ACC18003A4819383A4C19383ABE0
:104400000194938701F823A08701C0C384C723A622
:104410007701A2852285EFB01254AA8AA685268547
:10442000EFB07253AA855685EFB00263AA85EFB04C
:10443000A262AA8503A5CC05EFB0327BEFC0225360
:104440002AC42EC66285A285EFB0F250AA8ADE8504
:104450002685EFB05250AA855685EFB0E25FAA8557
:10446000EFB0825FEFC0A2502246B246B72A0300E7
:10447000EF80021903260B0683264B06EFA092134A
:1044800003A60A0B83A64A0BEFA04221EFC00259F4
:104490002320AA00A6856285EFB0F24BAA84DE85B0
:1044A0002285EFB0524BAA852685EFB01274AA85FB
:1044B000EFB0825AEFC0A24BEF80A2083704008011
:1044C00003260B0683264B06B347B4002A873A859A
:1044D000BE85EFA0320E03A60A0B83A64A0BEFA0FF
:1044E000E21BEFC0A253372703008325070A83ADE1
:1044F00081932322AA0083A4C19303ACC18083AB20
:10450000019403A5C19383A7C19303AD019483A92B
:1045100001943EC4EFB03244A247BE85EFB0B2432F
:104520002A89EA856A85EFB02253CE85EFB0B24280
:10453000AA854A85EFB0726B83A5CC05EFB0C25156
:10454000EFC0E2422AC42EC66E85EE85EFB0C2509F
:10455000A685EFB05240AA84E2856285EFB0C24FD3
:10456000DE85EFB0523FAA852685EFB0E24EEFC060
:1045700002402246B246EF80A20803260B0683269D
:104580004B062A87B347B4003A85BE85EFA0920256
:1045900003A60A0B83A64A0BEFA04210EFC0024805
:1045A0002324AA0045616FB07FC5EFB2DFC2B764B4
:1045B0000040AA8A2E8A3289368493890480B705FE
:1045C00002004E85EFC03F937DF913850480854539
:1045D000B7040300B7690040EFC0DF898504138B7F
:1045E0000980A6855A85EFC0BF8F65DDD685138506
:1045F00009800146B7040700B7690040EFC03F8D4E
:1046000093842408938A0980A6855685EFC05F8D20
:1046100065DD13850980D285B7090700B7640040BE
:10462000EFC03F8A9389490893840480CE8526850C
:10463000EFC01F8B65DDB7640040B7090700229902
:104640009384048093894908631B8900376500407F
:10465000854513050580EFC09F836FB01FBB050420
:104660008345F4FF2685EFC0DF85CE852685EFC024
:104670003F8765DDD1BFEFB2BFB74111CC8793064D
:10468000F100AA8505461305000DEFF01FF2410168
:104690006FB05FB8EFB2DFB537250600814513056F
:1046A00005A8EFE02F87930500081305B006EFF08B
:1046B0009FFC13054006EFD0CFC881451305B00617
:1046C000EFF07FFBCD456545EFF0FFFA9145694579
:1046D000EFF07FFA81457145EFF0FFF9E1456D4557
:1046E000EFF07FF9814513058003EFF0DFF8814596
:1046F0001305A006EFF03FF8814513053002EFF0F7
:104700009FF79305000813057003EFF0DFF685456A
:104710001305B006EFF03FF601456FB0BFAFEFB243
:104720009FABFD574111AE84631BF5021384010951
:10473000130944011C4091CF0387470019CB9847C8
:10474000636997009C43B285138501F932C682974D
:1047500032461104E31024FF41016FB01FAB6DDD41
:1047600083074500F5DB1C45E3E8B7FE1C41B28535
:10477000138501F98297CDB763850616FD5763054A
:10478000F5001C4563EFB714EFB29FA3328A368958
:104790003687B286B7270300372603004111AE8B58
:1047A000AA8A9387470C1306C6109305F00F13854A
:1047B00001F9EF80D27493790AFF9304FA0013167B
:1047C0000501B3843441CA944186DE855685EFF0F5
:1047D0001FF5C198C109938D01F95299B72C0300B7
:1047E000372D030081E441016FB05FA1B7270300BB
:1047F000138C09FF9385C7126286138501F9EF8038
:10480000926DE2875945930600021304350063E474
:10481000470163E92705B385AD001306250094A180
:1048200094B16E96228514A28507E39037FFB38674
:104830008D009307C007130600029CA290B2930755
:104840002400130800029308E0051303E002138418
:10485000170063644C0163632C03EE972380070108
:10486000A28791A0902393850C146E9536C63EC402
:10487000EF8072662285B246A2477DB703460C00E0
:10488000930606FE93F6F60F63E9D8043385FD0020
:1048900093058D141AC642C4EF80F2632248324356
:1048A000A2879308E005050CE3133CFBB3878D005A
:1048B0001307000298A3130644001307C00798B318
:1048C00042063547B8A341862947DE855685B8B3E9
:1048D000C114EFF0DFE4C10931B7EE972380670020
:1048E00041B7828091C14CC59386010981471387E6
:1048F000010915468C4289E58A07BA9788C38280E8
:1049000085079106E398C7FE8280397122CC2A84FC
:1049100026CA36D6AE8474109305F00F138501F9BC
:104920003EDA06CE3AD842DC46DE36C6EFC0C27A60
:104930009307001063D4A700130500101316050198
:10494000A68522854186EFF09FDDF2406244D24485
:104950002161828005E9EFB2BF89B72703003727BD
:10496000030037260300130850089387C714130762
:10497000870B85461306461785457D55EFF0FFF8F2
:104980006FB05F890CC58280B707002083A7C7017D
:1049900091CBEFB2FF852E86AA853E85EF10C0260B
:1049A0006FB05F878280EFB21F83B7440140AA894E
:1049B0002E8901449384048063472401131509015F
:1049C00041856FB09F84B38789008C232685EFD003
:1049D0004F8F930500042685EFD0AF8F7DD9050456
:1049E000E1BF411122C637440140930550521305DF
:1049F0000480EFD0AF8E01CD13050480EFD0EF8C93
:104A000093158501E1851385410AEF102012324488
:104A1000410173002030EFB2AFFDB757000013879C
:104A2000410A9387679A130600201385410A9385EC
:104A300001113CD7EF003064370500209385410A0F
:104A400013050501EFF01FEA6FB0CFFC81473387F4
:104A5000F500830607003307F50089E62300070009
:104A60003E8582808507C20714A3C183CDB7EFB20C
:104A70002FF84111AA87CC871305F100854582974D
:104A800041016FB02FF97A255E256370F702EFB20E
:104A90002FF61C499306170076A5BA978385070061
:104AA0002855EFF0DFFC6FB0EFF682807E2589CFCE
:104AB000EFB20FF42A842855A145EFF05FFB7E2466
:104AC000FD177EA46FB00FF582809387C131938666
:104AD0004701884309C503470506098B09E7910784
:104AE000E399D7FE01458280385505C7EFB24FF0F4
:104AF00081479396070185073386F5000306F6FF85
:104B0000C18265FA2E85B6850297420541816FB054
:104B10006FF001458280EFB2AFED83470506858BCC
:104B2000B9C72A8499C5B72503009385053CEFF0E2
:104B3000BFFB1C402285CC43EFF01FFBB7250300D1
:104B40009385C55B2285EFF03FFA0C4489E5B725D4
:104B500003009385855B2285EFF01FF9B7250300DD
:104B60009385055C2285EFF03FF86FB0AFEAB7257B
:104B700003009385455CC5BFEFB28FE7EFF0FFF40C
:104B800019C5B725030093850525EFF0FFF56FB034
:104B90006FE8982105C39C418566938606F0F58FE2
:104BA0009387078081CB1441FD578DC29C227D8F56
:104BB000FD5709CF034705068147058B01EB9C4153
:104BC000B18393C71700858BB307F0403E85828081
:104BD00023840500A147254811E521451D8D620567
:104BE000618582801376F5001377F60F930607032D
:104BF0006357C8001307770593168701E186FD17F1
:104C000093F7F70F3387F50014A31181F1B7EFB2D3
:104C10002FDE814713840131130600032547B306B5
:104C2000F40090A28507E39CE7FE1C41054748413C
:104C3000A183BD8B637DF7001D47637AF700214791
:104C40006387E70093850131EFF09FF822856FB00D
:104C50006FDC9357F54133C7A7001D8FA38505006F
:104C6000AD47294619EF635C0502FD1793F7F70F6F
:104C7000BE951307D00298A12D451D8D6205618553
:104C80008280B366C702FD1793F7F70F3388F500EC
:104C9000938606032300D8003347C702E1B769FDB6
:104CA000FD1793F7F70FBE9513070003E9B7EFB2AF
:104CB0002FD4411140002E89B72503003146AA8424
:104CC0009385055F2285EFB0926CB725030093852D
:104CD000C55D2685EFF05FE1A2854A85EFF07FF79D
:104CE000B305A440AD052685EFF01FE0B72503000E
:104CF0009385855E2685EFF03FDF8147130600032D
:104D00002D47B306F40090A28507E39CE7FEA28539
:104D10004A85EFF0FFEBA2852685EFF0FFDCB72593
:104D200003009385053C2685EFF01FDC41016FB041
:104D30006FCEEFB24FCA2A842E852E89EFF03FED59
:104D4000AA852285EFF05FDAD944898CC204C18438
:104D5000634390009144285493050002FD14EFF042
:104D60001FD113950401418193140501C18465F598
:104D7000832709000547A183BD8B6364F70AB72524
:104D80000300938545372285EFF01FD6B724030033
:104D90009385C4392285EFF03FD59D497D5A8347DD
:104DA000090093058007B3D73741858B99E39305B5
:104DB000D0022854FD19EFF09FCBE39249FF938571
:104DC000C4392285EFF05FD234540325C900A9C24B
:104DD000096681473548130616403307F500182346
:104DE00093950701C1818507E369E8FE3357E60023
:104DF000058B65D79307400263F2B706930540021F
:104E000082963C54372503008D451305053A829759
:104E1000B72503009385053C2285EFF0FFCC6FB0EA
:104E2000CFBE1D476367F700B72503009385C537DD
:104E300099BF21476397E700B7250300938545385D
:104E400099B725476397E700B72503009385C538D1
:104E50001DBFB72503009385453935B782964DBFF1
:104E6000EFB26FB7B7250300938505362A898329EA
:104E700085050144EFF05FC7054A8357C9056344C0
:104E8000F4006FB08FB893144400CE949C40A1837B
:104E9000BD8B636BFA00A6854A85EFF09FCF09E5CD
:104EA000A6854A85EFF0FFE8050442044184F1B786
:104EB000EFB20FB4EFF07FC119C1EFF07FFA6FB01E
:104EC0006FB5EFB24FB1B72503009385453C2A89F2
:104ED000832985050144EFF03FC1154A8357C90571
:104EE0006344F4006FB06FB293144400CE949C40BE
:104EF000A183B907BD8B636BFA00A6854A85EFF0E5
:104F00005FC909E5A6854A85EFF0BFE205044204C2
:104F10004184E9B7EFB2CFADEFF03FBB19C1EFF07D
:104F20005FFA6FB02FAFEFB20FABB72503009385D9
:104F3000453B85692A89032A85050144EFF0DFBADC
:104F4000938909F08357C9056344F4006FB0EFAB50
:104F500093144400D2949C40B3F7370193870780A1
:104F600091EBA6854A85EFF0DFC209E5A6854A8563
:104F7000EFF03FDC050442044184E9B7EFB24FA7EC
:104F8000EFF0BFB419C1EFF01FFA6FB0AFA8EFB2E6
:104F90008FA4B72503009385453A2A89032A8505FE
:104FA000EFF09FB485670144938A07F093890790D7
:104FB0008357C9056344F4006FB02FA593144400D0
:104FC000D2949C40B3F75701639B3701A6854A856D
:104FD000EFF03FBC09E5A6854A85EFF09FD50504B3
:104FE00042044184F1B7EFB2AFA0EFF01FAE19C198
:104FF000EFF0FFF96FB00FA2EFB2EF9D2A892E8478
:105000009304F00FB72903007D141374F40F631495
:1050100094006FB08F9F9385C9254A85EFF0DFAC70
:10502000E5B7EFB2EF9C42257E25AA841D8C420491
:10503000418463488000CC242685EFF0FFFB6FB0ED
:105040006F9DA854930500027D14EFF05FA2C5B7D1
:10505000EFB20F9A83164505035705052A849387F7
:10506000F6FF231AF5048357250563F3E700BA8793
:105070001397070141833307E0406346D700B30726
:10508000F040231AF4042285EFF0BFF9031744051A
:1050900009E7232604006FB0EF97835724050848DB
:1050A0009507BA971547B3E7E702B1078A07A297B2
:1050B000CC47EFF0BF994AA479DD0C486AA4228559
:1050C000EFF09FA2C9BFEFB22F905A252A8409EBB7
:1050D000EFF01FD985452285EFF0FFA36FB04F9207
:1050E0001C49835A45038149BA9723800700032A44
:1050F000850501498144054BB72B03008357C4053F
:1051000063CFF904E30C09FC85476315F900228598
:10511000EFF03FF1920483290401D2942685EFF049
:105120001FAFAA854E85EFF07F924AA4854763FCA6
:105130002701A6852285EFF0DFBF85452285EFF0A8
:105140009F9D231654015A241C482285BA97238018
:1051500007005E240C487EA4EFF01F9941B7139C12
:105160004900529CE2852285EFF0BFA241E96285A9
:10517000832C0401EFF0BFA981473387FC0083062D
:10518000070081CA3307F5000307070019C3638CC2
:10519000E6065A246314F706630B090463176901D2
:1051A00093850B3C2285EFF03F949204D294A68520
:1051B0002285EFF01FB82685EFF07FA5AA846285CF
:1051C000EFF0FFA481473387F4008306070081CA0C
:1051D0003307F5000307070019C3638AE602568701
:1051E00063F357013E87931A070193DA0A01050911
:1051F000939409014209C180135909018509C20923
:1052000093D90941E5BD8507C207C183BDB78507AD
:10521000C207C1834DBFEFA2BFFD835745052A8456
:105220008507C207C187231AF5046356F000231AC5
:1052300005046FA03FFEEFF0DFDE0317440501E732
:1052400023260400FDB78357240508489507BA971D
:105250001547B3E7E702B1078A07A297CC47EFF0FB
:10526000EFFE4AA479D50C486AA42285EFF0DF87C7
:10527000C9B7EFA2FFF75A395E252A847D1763C2AA
:10528000E702B72503009385C533EFF0FF85854519
:105290002285EFF05F880C482285EFF0FF846FA035
:1052A0007FF77A25639AE70218499386170056A577
:1052B000BA978CA35A251C49BA97238007007E25EC
:1052C00085077EA583470506858B99E39305A00294
:1052D0002854EFF0CFF9E1B7E373F7FC998FC207D9
:1052E000C1873E86184876246345F00493871600EC
:1052F0007EA436970CA35E2418488507C207C18395
:105300005EA4BA97238007000359E4007D19462460
:10531000420913590941634899027E249D8CC204B5
:10532000C184E35E90F62854A145FD14EFF02FF4FC
:10533000FDB7B29636978306F7FFFD17C20714A391
:10534000C1877D1645B7834704069305A002858B68
:1053500089C71C48CA978385070028540509EFF0C0
:105360000FF175B77A259387150093B7170001E7FA
:105370008546638ED50AEFA2BFE756252A84631EB1
:10538000D702FD566381D50285466398D5027D1705
:105390001C497AA5420741835AA53E97230007007E
:1053A0008545EFF07FC56FA0FFE614483E9785075F
:1053B000369783060700A30FD7FE56247A24C20728
:1053C000C1873386E640E3C2C7FEFD1656A4FD57EB
:1053D0006388F50028547D177AA4A145EFF02FE9E2
:1053E0005A241C48BA97238007008314E4005E24E3
:1053F000285463C4F40293050002EFF04FE74624FB
:105400007E2485049D8CC204C184E35E90F82854F8
:10541000A145FD14EFF0AFE5FDB71C48A6978385C5
:1054200007008504C204EFF08FE4C184C9B782800D
:10543000EFA21FDC8545EFF0FFF26FA0BFDDEFA20A
:105440003FDBFD55EFF01FF26FA0DFDCEFA25FDA6C
:1054500041112A8F02C002C202C402C681471395BD
:10546000070141856342E502014401458147054842
:10547000938E0182930FC005854293030002636CF3
:10548000B40041016FA01FD9139827003298232040
:1054900008008507E9B7B3088F0003830800A1EF70
:1054A000638C6602631758086359E50013182500DA
:1054B0003298232018010505014803CE0E0003830E
:1054C0000800631AC3050408138E1700A6972388E3
:1054D00067FE9377FE0081A0E31108FE03881800A1
:1054E0002380080001183338000193081400139436
:1054F0000801418069B703CE1E00E310C3FD13030A
:1055000001013E93034EF3FE03C30E00E3176EFA50
:10551000FD1793F7F70F03830800E318F3FD0383E8
:105520001800E30403FC930814001394080141805D
:105530006DBFE30573FA51B7EFA21FC93C4D835409
:10554000C5050569B307F64091839D8CC204130C11
:1055500009F0AA892E8AB28A368BC180814B130941
:10556000099093970B01C18363E49700014415A848
:1055700013944B0056941C40B3F7870163942701A2
:10558000850BC5B7A2854E85EFF0AFE075F9228592
:10559000EFF0EFE7AA8563190B005285EFA0DFD289
:1055A00065F122856FA0DFC55A865285EFB0B22A19
:1055B000C5BFEFA2FFC34111AA842EC6EFF0EFD002
:1055C00019C58547B2456397F400EFF07F89410123
:1055D0006FA05FC4E3DD97FE304DCC4181462A8445
:1055E000EFF09FF5AA8421C1B72503009385C5304C
:1055F0002285EFF06FCF2685EFF06FE1AA85228537
:10560000EFF08FCE372903009305093C2285EFF098
:10561000AFCDCC442285EFF02FCD9305093C2285F8
:10562000EFF08FCC6DB7B725030093850532C5BF6A
:105630009C4115470145A183B907BD8B636EF702F5
:1056400037270300130707228A07BA9798439C4518
:1056500002878843828003950700828003850700C4
:1056600082803E858280D843014519C7EFA25FB88A
:10567000884302976FA01FBA8280EFA2DFB5411165
:10568000AE894400B72503002A8431469385055F1F
:105690002685EFB0C24FCE852285EFF07FF983A536
:1056A00049002A892285EFF02FC4B725030093858E
:1056B000855A2285EFF04FC383A709001547A183C0
:1056C000BD8B639DE702B72403009385C45A2285EE
:1056D000EFF08FC1CA852285EFF00FC19385C45AC0
:1056E0002285EFF06FC0B72503009385053C228526
:1056F000EFF08FBF4A8541016FA03FB1A6854A8573
:10570000EFF02FD5B385A440AD052285EFF0CFBDD6
:10571000B72503009385855E2285EFF0EFBC8147B6
:10572000130600032D47B386F40090A28507E39C7F
:10573000E7FEA6854A85EFF0AFC9A68555B7EFA26B
:105740003FAB9C41AA842E8413971701635907002D
:10575000B725030093858557EFF00FB915A0A183F6
:10576000B907BD8B1547636DF700372703008A071C
:1057700013078723BA979C43B28582871C4490C342
:10578000A2852685EFF07FEF6FA0DFA81C4492A3CF
:10579000C5BF1C4490A3EDB70844EFF02FABCDB7C5
:1057A000B72503009385455945BF18441C47E9DBDD
:1057B000084319C18297E9B732858297D1B7EFA222
:1057C0003FA3AA842E89EFF04FB005C1304DA685C6
:1057D00081462A84EFF05FD6AA8511E9B725030038
:1057E000938585552285EFF02FB001452DA01C41F2
:1057F0001547A183B907BD8B637BF700A68522857A
:10580000EFF08FAEB725030093858556E1BF4A863A
:105810002285EFF0DFF26FA0FF9FEFA27F9D2A8429
:105820000CC18845054711CD8307050099CB763813
:105830008547014763F7D7000C4CEFA0FFA813374B
:10584000150083470406B725030093850525F99BBA
:10585000D98F2300F4062285EFF00FA983470406B1
:10586000858B81CBB72503009385453D2285EFF0DD
:10587000AFA76FA03F9AEFA2BF97834705060CC959
:105880002A8493E717002300F50699473356F6025A
:10589000232605002320050023280504231A0504D8
:1058A0009307C5031307050552B9B2958CC3910739
:1058B000B295E39DE7FE37760300B7770300130741
:1058C000463D9387475A998F918338CC231EF40421
:1058D0009386C13181471387C1319545884205E9D7
:1058E0008A07BA9780C3B725030081461306463D51
:1058F000938545332285EFF03FC4AA852285EFF0DA
:10590000DFF185452285EFF00FA16FA0BF908507DD
:105910009106E395B7FCC1BFEFA2FF8B8347050655
:1059200098412A8493E727002300F506856793872B
:1059300007F0F98FAE89C9E3416A8144930A2002D6
:105940007D1A81A093972400A297D84B8306070065
:105950006397560123000700D84B0507D8CB03A94E
:1059600047014A85EFB0026E337545017D152A99CE
:105970008307090063945701230009008504C204CA
:10598000C1806A38E3E0A4FC83A789009305440141
:10599000829783A70900AA8413972701634607000B
:1059A000AA852285EFF0AFB0834704062685F59BD4
:1059B0002300F4066FA07F85930600106397D7003D
:1059C000723993064501212BE9B7218339073D8BB5
:1059D000954663E6E600EFF05FCA8144F1B793872E
:1059E00007808144F1F3EFF05FE37DBFEFA25F80BA
:1059F00083470506ED9B2300F506EFF09F876FA018
:105A00007F815A2563080710EFA28FFE1C492A8464
:105A1000BA9723800700834405060329050193F7FD
:105A20001400E1C383570505231A05048354250593
:105A300089CF914799C09387F4FFB1078A07A2974E
:105A4000C847CA85EFA05F881DCDB1048A04A2941F
:105A5000C844CA85EFE09FFF11C583572405850719
:105A60002319F4048357040515478507C207C1832A
:105A7000636EF7042318F40403572405914763F475
:105A8000E700231904044E24084821479306000226
:105A900013064401EFF09F9B420541816AB823261B
:105AA00004001DC1B72503009385053C2285EFF056
:105AB000AF834C48304C81462285EFF0FFA7AA8582
:105AC00009C92285EFF05FE56FA0CFF42318E40445
:105AD00065B7B7250300938505322285EFF0CF80A7
